:100000000C94F8000C9415010C9415010C94150136
:100010000C9415010C9415010C9415010C94150108
:100020000C9415010C9415010C9415010C941501F8
:100030000C9415010C9415010C9415010C941501E8
:100040000C9415010C9415010C9415010C941501D8
:100050000C94BD030C94DD030C9415010C94150154
:100060000C9415010C941501BF02BF02BF02BF0220
:10007000BF02BF02BF02BF02BF02BF02D402D4024E
:10008000D402D402D402D402D4023A02D40293029B
:10009000D4029802D402D402D402D402D402D402EC
:1000A0001A02BF01C701D402CF01D402D402A702B1
:1000B000D601D4025602D402D402D402D402D4020D
:1000C000D402D402D402D402D4023A02D40293025B
:1000D000D4029802D402D402D402D402D402D402AC
:1000E0001A02BF01C701D402CF01D402D402A70271
:1000F000D601D402560200407A10F35A00A0724E84
:1001000018090010A5D4E80000E87648170000E4BC
:100110000B54020000CA9A3B000000E1F505000004
:1001200080969800000040420F000000A086010069
:100130000000102700000000E80300000000640039
:10014000000000000A0000000000010000000000A4
:100150002C76D888DC674F0823DFC1DFAE59E1B1C8
:10016000B796E5E3E453C63AE651997696E8E6C2D7
:100170008426EB898C9B62ED407C6FFCEFBC9C9FDE
:1001800040F2BAA56FA5F490055A2AF75C936B6C00
:10019000F9676DC11BFCE0E40D47FEF520E6B500F4
:1001A000D0ED902E0300943577050080841E080062
:1001B00000204E0A000000C80C333333330F986E12
:1001C00012831141EF8D2114893BE65516CFFEE6CF
:1001D000DB18D1844B381BF77C1D901DA4BBE42495
:1001E000203284725E228100C9F124ECA1E53D2712
:1001F00011241FBECFEFD8E0DEBFCDBF12E0A0E0DC
:10020000B1E0ECE4F5E102C005900D92A034B10735
:10021000D9F722E0A0E4B2E001C01D92A938B207EC
:10022000E1F70E9464010C94A40A0C94000082E49B
:1002300080937C008FEE80937A0084E080937B0033
:10024000089588E084B915B8089588E58093C100C1
:1002500080E190E09093C5008093C400089514BCA1
:1002600010926E0085E085BD86E086BD089581E828
:100270008093B00086E08093B1001092B30008959F
:1002800021E020934202E8E4F2E02DE0208322E026
:10029000209343022AE02183FC012081222379F06C
:1002A000DC01E091430281E08E0F809343028D9147
:1002B000F0E0E85BFD4F80838C918111F2CF80915B
:1002C00048028093C6000895CF93DF93CDB7DEB781
:1002D000E8970FB6F894DEBF0FBECDBF0E94210194
:1002E0000E9425010E9417010E942F010E943701E0
:1002F00078940F2EF0ECEF2EF12CF02D0F2EF6EC63
:100300004F2E512CF02DCE0101963C01FE01B696E8
:10031000F8ABEFA74E969AAB89AB9FA59DABE8A92A
:10032000EEABF9A9FFAB2AA928AF6BAA7CAA882457
:100330008394912C0F2EF2E2AF2EF2E0BF2EF02D1F
:100340000F2EF2E1CF2EF2E0DF2EF02D0F2EF6EF82
:100350002F2EF1E03F2EF02DF701808188230CF045
:1003600027C1F2016081862F90E0FC01F097E7340D
:10037000F10508F019C1EC5CFF4F0C94480582E0D0
:1003800080937A0282EC91E00E94400111C1F1E079
:10039000F0937A0282EB91E00E94400109C1109231
:1003A0007A0288E991E00E94400102C180917A02BC
:1003B0008230D9F520917B0230917C0240917D0200
:1003C00050917E02A4EFB1E00E944E050E944D04C0
:1003D00020E030E040E85AE30E94B3040E941E048B
:1003E00060937F02709380028093810290938202D7
:1003F0000E944D040FA918AD22E046E00E94680556
:100400002AA92F9389A98F933F922F927F926F925F
:100410000E9488058BA99CA90E9440010F900F9013
:100420000F900F900F900F90C3C086E691E00E944E
:100430004001BEC080917A028130B9F480917B0284
:1004400090917C02A0917D02B0917E028130924019
:10045000A105B10528F08FE291E00E944001A8C0FB
:1004600084E291E00E944001A3C08CE391E00E94ED
:1004700040019EC080917E028F9380917D028F9378
:1004800080917C028F9380917B028F93DF92CF9239
:100490007F926F920E9488058BA99CA90E944001BF
:1004A0000FB6F894DEBF0FBECDBF82C060917B0255
:1004B00070917C0280917D0290917E020E944D0499
:1004C00020E030E040E85AE30E94B30420E030E44A
:1004D0004CE955E40E94B3040E941E046093440258
:1004E0007093450280934602909347020E944D0408
:1004F0000DA91EA922E048E00E94680598A99F93D3
:10050000EFA5EF93BF92AF927F926F920E94880502
:100510008BA99CA90E9440010F900F900F900F9003
:100520000F900F9045C0909241028092400240C0CF
:100530008091400290914102892B21F480E091E06A
:100540000E944001109241021092400231C0E3EB40
:10055000F0E080811F928F9384E392E09F938F93CA
:100560007F926F920E9488058BA99CA90E944001EE
:100570000F900F900F900F900F900F9019C070E098
:1005800060537109072E000C880B990B0E944F04D1
:1005900020E030E04CEC51E40E94B3040E941E04C1
:1005A000E3EBF0E0608304C081EE91E00E94400143
:1005B0008091870290918802892B09F4CDCE809199
:1005C000400290914102892B09F4D2C080917A02B5
:1005D0008130F1F120F0823009F451C08DC060917A
:1005E0007B0270917C0280917D0290917E020E943C
:1005F0004D0420E030E040E85AE30E94B3040E943A
:100600001E046093440270934502809346029093C7
:1006100047020E944D040DA91EA922E048E00E9455
:100620006805F8A9FF932FA52F9382E292E09F938C
:100630008F937F926F920E9488058BA99CA90E943C
:1006400040010F900F900F900F900F900F9090C05F
:1006500080917B0290917C02A0917D02B0917E02FC
:1006600081309240A105B10528F08FE291E00E940F
:1006700040017EC084E291E00E94400179C0209157
:100680007B0230917C0240917D0250917E02A4EF6A
:10069000B1E00E944E050E944D0420E030E040E8A9
:1006A0005AE30E94B3040E941E0460937F02709379
:1006B000800280938102909382020E944D040FA9D0
:1006C00018AD22E046E00E946805FAA9FF9329A927
:1006D0002F9386EF91E09F938F937F926F920E946A
:1006E00088058BA99CA90E9440010F900F900F9044
:1006F0000F900F900F903CC020917B0230917C02B4
:1007000040917D0250917E02A4EFB1E00E944E051F
:100710000E944D0420E030E040E85AE30E94B30418
:100720000E941E0460937F02709380028093810276
:10073000909382020E944D040FA918AD22E046E07A
:100740000E9468058AA98F9399A99F9386EF91E0EB
:100750009F938F937F926F920E9488058BA99CA98B
:100760000E9440010F900F900F900F900F900F90EC
:100770001092880210928702DACD1F920F920FB664
:100780000F9211248F93EF93FF93E0914202809197
:1007900043028E1751F081E08E0F80934202F0E009
:1007A000E85BFD4F80818093C600FF91EF918F91B0
:1007B0000F900FBE0F901F9018951F920F920FB6BB
:1007C0000F9211248F939F93AF93BF9381E090E09A
:1007D00090938802809387028091780090917900AD
:1007E000A0E0B0E080937B0290937C02A0937D0216
:1007F000B0937E0286E086BD80917A02813041F01E
:1008000018F0823049F00CC080E480937C000BC06B
:1008100081E480937C0007C082E480937C0003C065
:1008200082E480937C0081E085BBBF91AF919F9172
:100830008F910F900FBE0F901F9018950E949204F9
:1008400088F09F5798F0B92F9927B751B0F0E1F091
:10085000660F771F881F991F1AF0BA95C9F714C041
:10086000B13091F00E94AC04B1E008950C94AC0456
:10087000672F782F8827B85F39F0B93FCCF386957A
:1008800077956795B395D9F73EF4909580957095D7
:1008900061957F4F8F4F9F4F0895E89409C097FB54
:1008A0003EF490958095709561957F4F8F4F9F4F47
:1008B0009923A9F0F92F96E9BB279395F69587958B
:1008C00077956795B795F111F8CFFAF4BB0F11F44E
:1008D00060FF1BC06F5F7F4F8F4F9F4F16C08823F5
:1008E00011F096E911C0772321F09EE8872F762F2B
:1008F00005C0662371F096E8862F70E060E02AF06C
:100900009A95660F771F881FDAF7880F9695879557
:1009100097F9089557FD9058440F551F59F05F3FC0
:1009200071F04795880F97FB991F61F09F3F79F011
:1009300087950895121613061406551FF2CF469593
:10094000F1DF08C0161617061806991FF1CF869515
:100950007105610508940895E894BB2766277727F9
:10096000CB0197F908950E94C6040C9437050E94A4
:10097000290538F00E94300520F0952311F00C94E1
:1009800020050C94260511240C94AD040E948A04C1
:1009900070F3959FC1F3950F50E0551F629FF001D2
:1009A000729FBB27F00DB11D639FAA27F00DB11DEB
:1009B000AA1F649F6627B00DA11D661F829F222774
:1009C000B00DA11D621F739FB00DA11D621F839FFB
:1009D000A00D611D221F749F3327A00D611D231FD1
:1009E000849F600D211D822F762F6A2F11249F571F
:1009F00050409AF0F1F088234AF0EE0FFF1FBB1F22
:100A0000661F771F881F91505040A9F79E3F5105E0
:100A100080F00C9420050C94AD045F3FE4F3983E05
:100A2000D4F3869577956795B795F795E7959F5F8A
:100A3000C1F7FE2B880F911D9695879597F908951C
:100A400097F99F6780E870E060E008959FEF80EC81
:100A5000089500240A941616170618060906089524
:100A600000240A9412161306140605060895092E8A
:100A70000394000C11F4882352F0BB0F40F4BF2BF9
:100A800011F460FF04C06F5F7F4F8F4F9F4F089539
:100A9000EE0FFF1F0590F491E02D09940E94590577
:100AA000A59F900DB49F900DA49F800D911D1124C2
:100AB0000895A29FB001B39FC001A39F700D811D37
:100AC0001124911DB29F700D811D1124911D089557
:100AD000EF920F931F93CF93DF93E80147FD02C07E
:100AE00034E001C034E1042E000C550B57FF03C065
:100AF000519541955109E32E022F242FAE010E94FA
:100B00008B07CE01DF91CF911F910F91EF90089548
:100B1000AEE0B0E0EEE8F5E00C947B0A0D891E89AA
:100B200086E08C831A8309838FEF9FE79E838D83F2
:100B3000AE01475E5F4F6F89788DCE0101960E94AE
:100B4000AA05EF81F885E00FF11F10822E96E4E0F0
:100B50000C94970AABE0B0E0E0EBF5E00C946D0A82
:100B60006C017B018A01FC0117821682838181FF5F
:100B7000CCC1CE0101963C01F6019381F70193FDB2
:100B8000859193FF81917F01882309F4BAC1853251
:100B900039F493FD859193FF81917F01853229F48A
:100BA000B60190E00E94D309E7CF912C212C312C83
:100BB000FFE1F315D8F08B3279F038F4803279F018
:100BC0008332A1F4232D20611DC08D3261F080336A
:100BD00069F4232D216016C0832D8260382EE32D09
:100BE000E4603E2E2AC0F32DF8601DC037FC2DC0F6
:100BF00020ED280F2A3040F08E32B9F436FC81C146
:100C0000232D2064322E19C036FE06C08AE0989E3D
:100C1000200D1124922E11C0EAE02E9E200D1124E9
:100C2000222EF32DF0623F2E08C08C3621F4832D46
:100C30008068382E02C0883641F4F70193FD859113
:100C400093FF81917F018111B3CF982F9F7D9554A0
:100C5000933028F40C5F1F4F9FE399830DC08336B8
:100C600031F0833771F0833509F059C021C0F801A4
:100C7000808189830E5F1F4F88248394912C5301B8
:100C800013C02801F2E04F0E511CF801A080B18082
:100C900036FE03C0692D70E002C06FEF7FEFC50123
:100CA0000E94C8094C018201F32DFF773F2E16C028
:100CB000280122E0420E511CF801A080B18036FECE
:100CC00003C0692D70E002C06FEF7FEFC5010E9485
:100CD000BD094C01F32DF0683F2E820133FC1BC08F
:100CE000822D90E088169906B0F4B60180E290E07B
:100CF0000E94D3092A94F4CFF50137FC859137FE81
:100D000081915F01B60190E00E94D30921102A94DD
:100D100021E0821A91088114910471F7E8C08436A9
:100D200011F0893641F5F80137FE07C06081718105
:100D3000828193810C5F1F4F08C060817181072EF3
:100D4000000C880B990B0E5F1F4FF32DFF763F2E83
:100D500097FF09C090958095709561957F4F8F4F53
:100D60009F4FF0683F2E2AE030E0A3010E940F0A57
:100D7000882E861845C0853731F4232D2F7EB22E5C
:100D80002AE030E025C0932D997FB92E8F36C1F02F
:100D900018F4883579F0B5C0803719F0883721F01C
:100DA000B0C0E92FE061BE2EB4FE0DC0FB2DF46093
:100DB000BF2E09C034FE0AC0292F2660B22E06C0FD
:100DC00028E030E005C020E130E002C020E132E060
:100DD000F801B7FE07C060817181828193810C5F49
:100DE0001F4F06C06081718180E090E00E5F1F4F51
:100DF000A3010E940F0A882E8618FB2DFF773F2E35
:100E000036FE0DC0232D2E7FA22E891458F434FEF9
:100E10000BC032FC09C0832D8E7EA82E05C0B82CD5
:100E2000A32C03C0B82C01C0B92CA4FE0FC0FE0136
:100E3000E80DF11D8081803321F49A2D997EA92E31
:100E400009C0A2FE06C0B394B39404C08A2D86786C
:100E500009F0B394A3FC11C0A0FE06C0B21488F43C
:100E6000280C922C9B180EC0B21460F4B60180E2DC
:100E700090E00E94D309B394F7CFB21418F42B1862
:100E800002C0982C212CA4FE10C0B60180E390E093
:100E90000E94D309A2FE17C0A1FC03C088E790E01E
:100EA00002C088E590E0B6010CC08A2D867859F022
:100EB000A1FE02C08BE201C080E2A7FC8DE2B60178
:100EC00090E00E94D309891438F4B60180E390E0E1
:100ED0000E94D3099A94F7CF8A94F301E80DF11D8B
:100EE0008081B60190E00E94D3098110F5CF2220C5
:100EF00009F442CEB60180E290E00E94D3092A9420
:100F0000F6CFF6018681978102C08FEF9FEF2B9677
:100F1000E2E10C94890AA9E0B0E0E1E9F7E00C9481
:100F2000730A6A01122FB02E2BE3201720F0FF2442
:100F3000F394F00E02C02CE3F22E0F2D27E0AE0149
:100F40004F5F5F4F0E94E508BC014981842F897083
:100F5000813031F0E1FC06C0E0FE06C090E205C041
:100F60009DE203C09BE201C090E05E2D507143FF03
:100F70003CC0911102C083E001C084E0811718F4E5
:100F8000212F281B01C020E051110BC0F601822F38
:100F900030E2882319F031938150FBCFC20ED11C6F
:100FA00020E0992329F0D6019C93F60131966F0138
:100FB000C6010396E2FE0AC03EE4D6013C9341E43A
:100FC00011964C93119712963C9306C03EE6F6019B
:100FD000308341E641833283FC01322F40E23323E8
:100FE00009F442C041933150FACF42FF44C09111FD
:100FF00002C083E001C084E0811718F4212F281B70
:1010000001C020E051110BC0F601822F30E288238D
:1010100019F031938150FBCFC20ED11C20E09923EF
:1010200029F0D6019C93F60131966F01C601039613
:10103000E2FE0BC039E4D6013C933EE411963C93AA
:10104000119736E412963C9307C039E6F6013083D7
:101050003EE6318336E63283FC01322F40E2332311
:1010600019F041933150FBCFFC01E20FF11D1082CA
:101070008EEF9FEFA6C021E030E0911102C020E08A
:1010800030E0161617061CF4FB01319602C0E1E0B1
:10109000F0E02E0F3F1FBB2021F0EB2DF0E031964A
:1010A00002C0E0E0F0E02E0F3F1FE12FF0E02E172E
:1010B0003F071CF4121B212F01C020E08E2D8871E8
:1010C00059F4F601822F30E2882319F031938150D0
:1010D000FBCFC20ED11C20E0992329F0D6019C93AE
:1010E000F60131966F0151110BC0F601822F90E38A
:1010F000882319F091938150FBCFC20ED11C20E0C0
:101100000F2D060F9A81342F307144FF03C09133A5
:1011100009F40150101624F4093018F008E001C059
:1011200001E0AB0177FF02C040E050E0FB01E41BAF
:10113000F50BA1E0B0E0AC0FBD1FEA0FFB1F8EE284
:10114000A82E4B01801A91080B2D10E011950195E6
:1011500011094F3FBFEF5B0721F4D601AC92119606
:101160006D01641775072CF08416950614F48181BF
:1011700001C080E3415051093196D60111967D019D
:101180004017510724F0D6018C936701E2CF641712
:10119000750739F4963320F4953319F4311101C0F1
:1011A00081E3F6018083F701822F90E2882319F012
:1011B00091938150FBCFF701E20FF11D108280E087
:1011C00090E02996ECE00C948F0A283008F027E094
:1011D0003327DA01990F311D87FD91600096610573
:1011E000710539F432602E5F3D9330E32A95E1F7C3
:1011F00008959F3F30F080387105610509F03C5F2C
:101200003C5F3D93913008F08068911DDF93CF9350
:101210001F930F93FF92EF92192F987F9695E92FC6
:1012200096959695E90FFF27E05BFE4F99273327A8
:10123000EE24FF24A701E70105900894079428F401
:10124000360FE71EF81E491F511D660F771F881FB6
:10125000991F0694A1F70590079428F4E70EF81E4D
:10126000491F561FC11D770F881F991F661F0694BF
:10127000A1F70590079428F4F80E491F561FC71FC1
:10128000D11D880F991F661F771F0694A1F705903F
:10129000079420F4490F561FC71FD81F990F661FC8
:1012A000771F881F0694A9F784911095177041F055
:1012B000D695C79557954795F794E7941A95C1F732
:1012C000E6EFF0E068941590159135916591959150
:1012D00005907FE27395E118F10A430B560BC90B99
:1012E000D009C0F7E10CF11E431F561FC91FD01DC6
:1012F0007EF4703311F48A95E6CFE894015030F013
:10130000080F0AF40027021708F4202F2395022F54
:101310007A3328F079E37D932A95E9F710C07D931D
:101320002A9589F60694979567953795179517949A
:10133000E118F10A430B560BC90BD00998F023951D
:101340007E9173957A3308F070E37C932013B8F79D
:101350007E9170617D9330F0839571E37D9370E3AE
:101360002A95E1F71124EF90FF900F911F91CF91F3
:10137000DF91992787FD90950895FC0105906150B4
:1013800070400110D8F7809590958E0F9F1F08959B
:10139000FC016150704001900110D8F78095909544
:1013A0008E0F9F1F08950F931F93CF93DF93FB0121
:1013B000238121FD03C08FEF9FEF2CC022FF16C0B9
:1013C00046815781248135814217530744F4A08117
:1013D000B1819D012F5F3F4F318320838C93268104
:1013E00037812F5F3F4F3783268314C08B01EC0179
:1013F000FB010084F185E02D0995892BE1F6D801E8
:1014000016968D919C911797019617969C938E93A3
:101410001697CE01DF91CF911F910F910895FA0198
:10142000AA27283051F1203181F1E8946F936E7F23
:101430006E5F7F4F8F4F9F4FAF4FB1E03ED0B4E014
:101440003CD0670F781F891F9A1FA11D680F791F55
:101450008A1F911DA11D6A0F711D811D911DA11D66
:1014600020D009F468943F912AE0269F1124301976
:10147000305D3193DEF6CF010895462F4770405D11
:101480004193B3E00FD0C9F7F6CF462F4F70405DC0
:101490004A3318F0495D31FD4052419302D0A9F71B
:1014A000EACFB4E0A6959795879577956795BA9515
:1014B000C9F700976105710508959B01AC010A2EDB
:1014C00006945795479537952795BA95C9F7620FB2
:1014D000731F841F951FA01D08952F923F924F9256
:1014E0005F926F927F928F929F92AF92BF92CF92B4
:1014F000DF92EF92FF920F931F93CF93DF93CDB7BD
:10150000DEB7CA1BDB0B0FB6F894DEBF0FBECDBF34
:1015100009942A88398848885F846E847D848C8405
:101520009B84AA84B984C884DF80EE80FD800C810E
:101530001B81AA81B981CE0FD11D0FB6F894DEBFF1
:0C1540000FBECDBFED010895F894FFCF61
:10154C00436F6E74696E756F757320646973706C1C
:10155C00617920616C726561647920646973616280
:10156C006C6564004C4452203D204461726B004C0D
:10157C004452203D20427269676874004D75737443
:10158C00207365742041444320666F72204C445292
:10159C0020627920747970696E6720274E27206F3E
:1015AC007220276E27004D7573742073657420416B
:1015BC00444320666F722074656D7065726174753A
:1015CC00726520627920747970696E6720274D27C7
:1015DC00206F7220276D27004144432073657420CF
:1015EC00666F7220706F74656E74696F6D6574656B
:1015FC0072004144432073657420666F72204C4422
:10160C0052004144432073657420666F72207465E8
:10161C006D70657261747572652073656E736F722F
:10162C0000556E7265636F676E697A656420636FCF
:10163C006D6D616E64004C4D33352054656D706575
:10164C00726174757265203D202573206465672076
:10165C0043004144432076616C7565203D20256C28
:10166C0075004144432076616C7565203D202573DF
:10167C00206D56004F43523241203D20256400001E
:00000001FF
