:100000000C946A000C9487000C9487000C94870071
:100010000C9487000C9487000C9487000C94870044
:100020000C9487000C9487000C9487000C94870034
:100030000C9487000C9487000C9487000C94870024
:100040000C9487000C9487000C9487000C94870014
:100050000C944F010C946F010C9487000C94870052
:100060000C9487000C94870043013F0135013F0148
:100070003A013F013F013F013F013F013F012C0198
:100080000E0115013F011C013F013F014301230106
:100090003F0143013F013F013F013F013F013F015C
:1000A0003F013F013F013F0143013F0135013F0156
:1000B0003A013F013F013F013F013F013F012C0158
:1000C0000E0115013F011C013F013F0143012301C6
:1000D0003F01430111241FBECFEFD8E0DEBFCDBFEB
:1000E00012E0A0E0B1E0E6E5F3E002C005900D9279
:1000F000AC30B107D9F722E0ACE0B2E001C01D920C
:10010000A734B207E1F70E94E3000C94A9010C9414
:10011000000082E480937C008FEE80937A0084E07C
:1001200080937B00089588E084B915B8089580EC29
:100130008093C00088E58093C10087E690E09093AB
:10014000C5008093C40086E08093C200089514BC6B
:1001500010926E0085E085BD86E086BD0895109200
:10016000800082E08093810081E280936F00089597
:1001700081E884BD86E085BD1092B300089521E03A
:1001800020930E02E0E1F2E02DE0208322E02093B4
:100190000F022AE02183FC012081222379F0DC0177
:1001A000E0910F0281E08E0F80930F028D91F0E0BD
:1001B000E05FFD4F80838C918111F2CF809110021E
:1001C0008093C60008950E9493000E9497000E94A9
:1001D00089000E94A7000E94AF000E94B800789496
:1001E000C0ECD0E006EC10E0EE24E394F12CCC243B
:1001F000C3946894DD24D1F8888188230CF043C02F
:10020000D801EC918E2F90E0FC01E154F109E63326
:10021000F105A8F5EC5CFF4F0C94A301D0924202CB
:100220008AEC91E00E94BF002EC0C09242028CEA8C
:1002300091E00E94BF0027C01092420284E891E042
:100240000E94BF0020C0809142028230E1F08EE324
:1002500091E00E94BF0017C080914202813099F066
:1002600080E091E00E94BF000EC0F0920D02E0928B
:100270000C0209C010920D0210920C0204C087EF0C
:1002800091E00E94BF008091450290914602019743
:1002900009F0B2CF1092460210924502ADCF1F92E4
:1002A0000F920FB60F9211248F93EF93FF93E0916B
:1002B0000E0280910F028E1751F081E08E0F809315
:1002C0000E02F0E0E05FFD4F80818093C600FF9159
:1002D000EF918F910F900FBE0F901F9018951F9266
:1002E0000F920FB60F9211248F939F9380917800F5
:1002F00090917900909344028093430281E090E0D2
:10030000909346028093450280914202813041F0F1
:1003100018F0823049F00CC080E880937C000BC05C
:1003200081E880937C0007C082E880937C0003C052
:1003300082E880937C00A8989F918F910F900FBEC8
:100340000F901F901895EE0FFF1F0590F491E02D70
:060350000994F894FFCFB0
:100356004D757374207365742041444320746F2077
:1003660072656164206F7574707574206F66204CB9
:1003760044522066697273742062792074797069B8
:100386006E6720274E27206F7220276E27004D7537
:100396007374207365742041444320746F20726522
:1003A6006164206F7574707574206F662074656D56
:1003B6007065726174757265206669727374206205
:1003C6007920747970696E6720274D27206F722017
:1003D600276D27004144432073657420746F207293
:1003E600656164206F7574707574206F6620706F18
:1003F60074656E74696F6D6574657200414443205F
:1004060073657420746F2072656164206F757470F3
:100416007574206F66204C44520041444320736536
:100426007420746F2072656164206F7574707574C2
:10043600206F662074656D706572617475726520D3
:1004460073656E736F7200556E7265636F676E6962
:0C0456007A656420636F6D6D616E640058
:00000001FF
