:100000000C946A000C9487000C9487000C94870071
:100010000C9487000C9487000C9487000C94870044
:100020000C9487000C9487000C9487000C94870034
:100030000C9487000C9487000C9487000C94870024
:100040000C9487000C9487000C9487000C94870014
:100050000C94EB010C940B020C9487000C94870019
:100060000C9487000C9487007001DB01B501DB0163
:10007000BA01DB01DB01DB01DB01DB01DB01560146
:1000800035013D01DB014501DB01DB01BF014C0115
:10009000DB018701DB01DB01DB01DB01DB01DB01D4
:1000A000DB01DB01DB01DB017001DB01B501DB0101
:1000B000BA01DB01DB01DB01DB01DB01DB01560106
:1000C00035013D01DB014501DB01DB01BF014C01D5
:1000D000DB01870111241FBECFEFD8E0DEBFCDBF0B
:1000E00012E0A0E0B1E0EAEFFAE002C005900D9264
:1000F000A035B107D9F722E0A0E5B2E001C01D921A
:10010000AB38B207E1F70E94E3000C947B050C9436
:10011000000082E480937C008FEE80937A0084E07C
:1001200080937B00089588E084B915B8089580EC29
:100130008093C00088E58093C10087E690E09093AB
:10014000C5008093C40086E08093C200089514BC6B
:1001500010926E0085E085BD86E086BD0895109200
:10016000800082E08093810081E280936F00089597
:1001700081E884BD86E085BD1092B300089521E03A
:1001800020935202E4E5F2E02DE0208322E0209368
:1001900053022AE02183FC012081222379F0DC0133
:1001A000E091530281E08E0F809353028D91F0E035
:1001B000EC5AFD4F80838C918111F2CF80915402D3
:1001C0008093C6000895CF93DF93CDB7DEB7E49751
:1001D0000FB6F894DEBF0FBECDBF0E9493000E9401
:1001E00097000E9489000E94A7000E94AF000E9411
:1001F000B800789400EC10E00F2EF6ECEF2EF12C06
:10020000F02D0F2EF5E46F2EF2E07F2EF02DCE01B3
:1002100001964C010F2EF8E84F2EF3E15F2EF02DE2
:100220008BAB9CAA22242394312C0F2EF3E3AF2E08
:10023000F2E0BF2EF02D0F2EF4E2CF2EF2E0DF2EF3
:10024000F02DD8018C9188230CF0B9C0D701EC9126
:100250008E2F90E0FC01E154F109E633F10508F03E
:10026000AAC0EC5CFF4F0C947C02B2E0B093860213
:1002700082EE91E00E94BF00A2C0E1E0E09386021E
:1002800084EC91E00E94BF009AC0109286028CE933
:1002900091E00E94BF0093C080918602823009F4F1
:1002A0008EC086E591E00E94BF0089C080918602E1
:1002B000813089F480918702909188028130924048
:1002C00028F08BE091E00E94BF0079C080E091E0CF
:1002D0000E94BF0074C088E191E00E94BF006FC01F
:1002E000809188028F93809187028F93DF92CF92C3
:1002F0009F928F920E9491028BA99CA90E94BF009D
:100300000F900F900F900F900F900F9058C020916A
:100310008702309188023695279536952795369530
:100320002795A5ECB0E20E948202929582958F708B
:1003300089279F708927849D9001859D300D949D0C
:10034000300D11243F932F93BF92AF929F928F92C3
:100350000E9491028BA99CA90E94BF000F900F9050
:100360000F900F900F900F902AC030925102209260
:10037000500225C0109251021092500220C0A3EBEF
:10038000B0E06C9170E080E090E00E943F029F93AB
:100390008F937F936F937F926F929F928F920E9421
:1003A00091028BA99CA90E94BF000FB6F894DEBFF2
:1003B0000FBECDBF04C08FE092E00E94BF008091CD
:1003C000890290918A02892B09F43BCF10928A020C
:1003D000109289022ACF1F920F920FB60F9211240A
:1003E0008F93EF93FF93E0915202809153028E1707
:1003F00051F081E08E0F80935202F0E0EC5AFD4FF5
:1004000080818093C600FF91EF918F910F900FBE76
:100410000F901F9018951F920F920FB60F921124F4
:100420008F939F93809178009091790090938802A8
:100430008093870281E090E090938A028093890202
:1004400080918602813041F018F0823049F00CC072
:1004500080E880937C000BC081E880937C0007C01B
:1004600082E880937C0003C082E880937C00A89897
:100470009F918F910F900FBE0F901F901895E89449
:1004800009C097FB3EF490958095709561957F4FDC
:100490008F4F9F4F9923A9F0F92F96E9BB2793958A
:1004A000F695879577956795B795F111F8CFFAF49A
:1004B000BB0F11F460FF1BC06F5F7F4F8F4F9F4FCB
:1004C00016C0882311F096E911C0772321F09EE829
:1004D000872F762F05C0662371F096E8862F70E08F
:1004E00060E02AF09A95660F771F881FDAF7880F69
:1004F0009695879597F90895EE0FFF1F0590F49153
:10050000E02D0994A29FB001B39FC001A39F700D7D
:10051000811D1124911DB29F700D811D1124911D0B
:100520000895AEE0B0E0E7E9F2E00C9452050D89E1
:100530001E8986E08C831A8309838FEF9FE79E8351
:100540008D83AE01475E5F4F6F89788DCE01019636
:100550000E94B302EF81F885E00FF11F10822E9602
:10056000E4E00C946E05ABE0B0E0E9EBF2E00C9453
:1005700044056C017B018A01FC011782168283818C
:1005800081FFCCC1CE0101963C01F6019381F701B8
:1005900093FD859193FF81917F01882309F4BAC16E
:1005A000853239F493FD859193FF81917F018532E6
:1005B00029F4B60190E00E94AA04E7CF912C212CE7
:1005C000312CFFE1F315D8F08B3279F038F480321A
:1005D00079F08332A1F4232D20611DC08D3261F0AA
:1005E000803369F4232D216016C0832D8260382E5C
:1005F000E32DE4603E2E2AC0F32DF8601DC037FCC9
:100600002DC020ED280F2A3040F08E32B9F436FC90
:1006100081C1232D2064322E19C036FE06C08AE027
:10062000989E200D1124922E11C0EAE02E9E200DDE
:100630001124222EF32DF0623F2E08C08C3621F4B7
:10064000832D8068382E02C0883641F4F70193FD6F
:10065000859193FF81917F018111B3CF982F9F7D69
:100660009554933028F40C5F1F4F9FE399830DC07E
:10067000833631F0833771F0833509F059C021C0DA
:10068000F801808189830E5F1F4F88248394912C09
:10069000530113C02801F2E04F0E511CF801A08055
:1006A000B18036FE03C0692D70E002C06FEF7FEFAE
:1006B000C5010E949F044C018201F32DFF773F2E5C
:1006C00016C0280122E0420E511CF801A080B18022
:1006D00036FE03C0692D70E002C06FEF7FEFC501E9
:1006E0000E9494044C01F32DF0683F2E820133FCEC
:1006F0001BC0822D90E088169906B0F4B60180E206
:1007000090E00E94AA042A94F4CFF50137FC859169
:1007100037FE81915F01B60190E00E94AA0421108A
:100720002A9421E0821A91088114910471F7E8C09B
:10073000843611F0893641F5F80137FE07C0608133
:100740007181828193810C5F1F4F08C0608171812C
:10075000072E000C880B990B0E5F1F4FF32DFF76B1
:100760003F2E97FF09C090958095709561957F4FBA
:100770008F4F9F4FF0683F2E2AE030E0A3010E9488
:10078000E604882E861845C0853731F4232D2F7E48
:10079000B22E2AE030E025C0932D997FB92E8F36F6
:1007A000C1F018F4883579F0B5C0803719F0883772
:1007B00021F0B0C0E92FE061BE2EB4FE0DC0FB2DCC
:1007C000F460BF2E09C034FE0AC0292F2660B22E65
:1007D00006C028E030E005C020E130E002C020E1A2
:1007E00032E0F801B7FE07C0608171818281938198
:1007F0000C5F1F4F06C06081718180E090E00E5F4A
:100800001F4FA3010E94E604882E8618FB2DFF7758
:100810003F2E36FE0DC0232D2E7FA22E891458F4B4
:1008200034FE0BC032FC09C0832D8E7EA82E05C07D
:10083000B82CA32C03C0B82C01C0B92CA4FE0FC047
:10084000FE01E80DF11D8081803321F49A2D997EFF
:10085000A92E09C0A2FE06C0B394B39404C08A2D89
:10086000867809F0B394A3FC11C0A0FE06C0B214B0
:1008700088F4280C922C9B180EC0B21460F4B601B8
:1008800080E290E00E94AA04B394F7CFB21418F467
:100890002B1802C0982C212CA4FE10C0B60180E3B6
:1008A00090E00E94AA04A2FE17C0A1FC03C088E742
:1008B00090E002C088E590E0B6010CC08A2D8678F1
:1008C00059F0A1FE02C08BE201C080E2A7FC8DE2DC
:1008D000B60190E00E94AA04891438F4B60180E3BE
:1008E00090E00E94AA049A94F7CF8A94F301E80D4D
:1008F000F11D8081B60190E00E94AA048110F5CF1D
:10090000222009F442CEB60180E290E00E94AA04BF
:100910002A94F6CFF6018681978102C08FEF9FEF70
:100920002B96E2E10C946005FC010590615070404B
:100930000110D8F7809590958E0F9F1F0895FC01A8
:100940006150704001900110D8F7809590958E0FFE
:100950009F1F08950F931F93CF93DF93FB01238174
:1009600021FD03C08FEF9FEF2CC022FF16C04681F0
:100970005781248135814217530744F4A081B18106
:100980009D012F5F3F4F318320838C9326813781D8
:100990002F5F3F4F3783268314C08B01EC01FB018F
:1009A0000084F185E02D0995892BE1F6D801169692
:1009B0008D919C911797019617969C938E931697FD
:1009C000CE01DF91CF911F910F910895FA01AA27CF
:1009D000283051F1203181F1E8946F936E7F6E5F82
:1009E0007F4F8F4F9F4FAF4FB1E03ED0B4E03CD030
:1009F000670F781F891F9A1FA11D680F791F8A1F13
:100A0000911DA11D6A0F711D811D911DA11D20D079
:100A100009F468943F912AE0269F11243019305D33
:100A20003193DEF6CF010895462F4770405D419324
:100A3000B3E00FD0C9F7F6CF462F4F70405D4A3371
:100A400018F0495D31FD4052419302D0A9F7EACF39
:100A5000B4E0A6959795879577956795BA95C9F768
:100A600000976105710508959B01AC010A2E06945B
:100A70005795479537952795BA95C9F7620F731F14
:100A8000841F951FA01D08952F923F924F925F9251
:100A90006F927F928F929F92AF92BF92CF92DF928E
:100AA000EF92FF920F931F93CF93DF93CDB7DEB7F3
:100AB000CA1BDB0B0FB6F894DEBF0FBECDBF099487
:100AC0002A88398848885F846E847D848C849B84DE
:100AD000AA84B984C884DF80EE80FD800C811B81EC
:100AE000AA81B981CE0FD11D0FB6F894DEBF0FBE1B
:0A0AF000CDBFED010895F894FFCF8B
:100AFA004C4452203D204461726B004C4452203DCC
:100B0A0020427269676874004D7573742073657446
:100B1A002041444320746F2072656164206F7574AC
:100B2A00707574206F66204C445220666972737423
:100B3A0020627920747970696E6720274E27206FAA
:100B4A007220276E27004D757374207365742041D7
:100B5A00444320746F2072656164206F75747075E8
:100B6A0074206F662074656D706572617475726544
:100B7A0020666972737420627920747970696E676D
:100B8A0020274D27206F7220276D270041444320DC
:100B9A0073657420746F2072656164206F75747058
:100BAA007574206F6620706F74656E74696F6D65F9
:100BBA00746572004144432073657420746F207217
:100BCA00656164206F7574707574206F66204C447B
:100BDA0052004144432073657420746F207265612A
:100BEA0064206F7574707574206F662074656D70FB
:100BFA00657261747572652073656E736F720055E4
:100C0A006E7265636F676E697A656420636F6D6D76
:100C1A00616E64004144432076616C7565203D2015
:100C2A002564004144432076616C7565203D20258A
:100C3A0064206D56004F43523241203D2025660004
:00000001FF
