:100000000C946A000C9487000C9487000C94870071
:100010000C9487000C9487000C9487000C94870044
:100020000C9487000C9487000C9487000C94870034
:100030000C9487000C9487000C9487000C94870024
:100040000C9487000C9487000C9487000C94870014
:100050000C94DF020C94FF020C9487000C94870030
:100060000C9487000C94870093010002D8010002D1
:10007000DF0100020002000200020002000279011A
:1000800037013F010002470100020002E4014E0176
:100090000002AA01000200020002000200020002A7
:1000A000000200020002000293010002D8010002D7
:1000B000DF010002000200020002000200027901DA
:1000C00037013F010002470100020002E4014E0136
:1000D0000002AA0111241FBECFEFD8E0DEBFCDBFC2
:1000E00012E0A0E0B1E0EEE8FEE002C005900D9263
:1000F000AC36B107D9F722E0ACE6B2E001C01D9200
:10010000A83AB207E1F70E94E3000C9445070C946B
:10011000000082E480937C008FEE80937A0084E07C
:1001200080937B00089588E084B915B8089580EC29
:100130008093C00088E58093C10087E690E09093AB
:10014000C5008093C40086E08093C200089514BC6B
:1001500010926E0085E085BD86E086BD0895109200
:10016000800082E08093810081E280936F00089597
:1001700081E884BD86E085BD1092B300089521E03A
:1001800020936E02E0E7F2E02DE0208322E020934E
:100190006F022AE02183FC012081222379F0DC0117
:1001A000E0916F0281E08E0F80936F028D91F0E0FD
:1001B000E059FD4F80838C918111F2CF80917002C4
:1001C0008093C6000895CF93DF93CDB7DEB7E29753
:1001D0000FB6F894DEBF0FBECDBF0E9493000E9401
:1001E00097000E9489000E94A7000E94AF000E9411
:1001F000B80078940F2EF1E66F2EF2E07F2EF02DEE
:100200008E010F5F1F4F0F2EF8E8AF2EF3E1BF2EC8
:10021000F02D0F2EFFE48F2EF2E09F2EF02D0F2EEB
:10022000F0E42F2EF2E03F2EF02D0F2EF4E2EF2E11
:10023000F2E0FF2EF02D502E412E0F2EF0ECCF2E9F
:10024000D12CF02DD6018C9188230CF0DDC0A6ECCA
:10025000B0E0EC918E2F90E0FC01E154F109E6331F
:10026000F10508F0CDC0EC5CFF4F0C944604B2E001
:10027000B093A30282EE91E00E94BF00C5C0E1E00E
:10028000E093A30284EC91E00E94BF00BDC01092F5
:10029000A3028CE991E00E94BF00B6C08091A30246
:1002A000823011F56091A4027091A50280E090E087
:1002B0000E944B0320E030E040E05FE30E948803AF
:1002C0009F938F937F936F93FF92EF921F930F9360
:1002D0000E945B04852D942D0E94BF000FB6F894F8
:1002E000DEBF0FBECDBF90C086E591E00E94BF008B
:1002F0008BC08091A302813089F48091A4029091F7
:10030000A5028130924028F08BE091E00E94BF006E
:100310007BC080E091E00E94BF0076C088E191E060
:100320000E94BF0071C08091A5028F938091A402AA
:100330008F933F922F921F930F930E945B04852D02
:10034000942D0E94BF000F900F900F900F900F9070
:100350000F905AC02091A4023091A502369527959E
:100360003695279536952795A5ECB0E20E944C046A
:10037000929582958F7089279F7089278A9D900119
:100380008B9D300D9A9D300D11243F932F939F929A
:100390008F921F930F930E945B04852D942D0E94D2
:1003A000BF000F900F900F900F900F900F902CC0E8
:1003B000E1E0F0E0F0936D02E0936C0225C0109252
:1003C0006D0210926C0220C0A3EBB0E06C9170E063
:1003D00080E090E00E944B039F938F937F936F93F5
:1003E0007F926F921F930F930E945B04852D942D33
:1003F0000E94BF000FB6F894DEBF0FBECDBF04C091
:100400008FE092E00E94BF008091A6029091A70227
:10041000892B09F417CFC7C08091A202823009F45A
:100420004CC028F4882351F08130B1F19BC0833057
:1004300009F465C0843009F47EC094C02091A40200
:100440003091A502369527953695279536952795AF
:10045000A5ECB0E20E944C04929582958F7089279A
:100460009F7089278A9D90018B9D300D9A9D300D3C
:1004700011243F932F939F928F921F930F930E946B
:100480005B04852D942D0E94BF000F900F900F905C
:100490000F900F900F9087C08091A4029091A502B9
:1004A0008130924028F08BE091E00E94BF007BC039
:1004B00080E091E00E94BF0076C06091A40270913C
:1004C000A50280E090E00E944B0320E030E040E095
:1004D0005FE30E9488039F938F937F936F93FF92B4
:1004E000EF921F930F930E945B04852D942D0E9421
:1004F000BF000FB6F894DEBF0FBECDBF54C0A3EB54
:10050000B0E06C9170E080E090E00E944B039F931C
:100510008F937F936F937F926F921F930F930E949D
:100520005B04852D942D0E94BF000FB6F894DEBFAA
:100530000FBECDBF38C08091A5028F938091A402D9
:100540008F933F922F921F930F930E945B04852DF0
:10055000942D0E94BF000F900F900F900F900F905E
:100560000F9021C06091A4027091A50280E090E0FC
:100570000E944B0320E030E040E05FE30E948803EC
:100580009F938F937F936F93FF92EF921F930F939D
:100590000E945B04852D942D0E94BF000FB6F89435
:1005A000DEBF0FBECDBF80916C0290916D02892B92
:1005B00009F032CF1092A7021092A6023ECE1F92EF
:1005C0000F920FB60F9211248F93EF93FF93E09148
:1005D0006E0280916F028E1751F081E08E0F809332
:1005E0006E02F0E0E059FD4F80818093C600FF91DC
:1005F000EF918F910F900FBE0F901F9018951F9243
:100600000F920FB60F9211248F939F9381E090E089
:100610009093A7028093A6028091A302813081F07B
:1006200018F08230C9F024C080E880937C0080916B
:100630007800909179009093A5028093A40223C042
:1006400081E880937C00809178009091790090936C
:10065000A5028093A40217C082E880937C00809159
:100660007800909179009093A5028093A4020BC02A
:1006700082E880937C00809178009091790090933B
:10068000A5028093A402A8989F918F910F900FBE0E
:100690000F901F901895E89409C097FB3EF4909531
:1006A0008095709561957F4F8F4F9F4F9923A9F04B
:1006B000F92F96E9BB279395F695879577956795DA
:1006C000B795F111F8CFFAF4BB0F11F460FF1BC01E
:1006D0006F5F7F4F8F4F9F4F16C0882311F096E9B1
:1006E00011C0772321F09EE8872F762F05C066235F
:1006F00071F096E8862F70E060E02AF09A95660F18
:10070000771F881FDAF7880F9695879597F90895D0
:100710000E949B030C940C040E94FE0338F00E947C
:10072000050420F0952311F00C94F5030C94FB03C1
:1007300011240C9440040E941D0470F3959FC1F392
:10074000950F50E0551F629FF001729FBB27F00D7F
:10075000B11D639FAA27F00DB11DAA1F649F6627D4
:10076000B00DA11D661F829F2227B00DA11D621F23
:10077000739FB00DA11D621F839FA00D611D221FDD
:10078000749F3327A00D611D231F849F600D211DC1
:10079000822F762F6A2F11249F5750409AF0F1F044
:1007A00088234AF0EE0FFF1FBB1F661F771F881FAD
:1007B00091505040A9F79E3F510580F00C94F503ED
:1007C0000C9440045F3FE4F3983ED4F3869577950C
:1007D0006795B795F795E7959F5FC1F7FE2B880F53
:1007E000911D9695879597F9089597F99F6780E8E9
:1007F00070E060E008959FEF80EC089500240A9473
:100800001616170618060906089500240A941216EB
:100810001306140605060895092E0394000C11F41E
:10082000882352F0BB0F40F4BF2B11F460FF04C0CB
:100830006F5F7F4F8F4F9F4F089557FD9058440F24
:10084000551F59F05F3F71F04795880F97FB991F2F
:1008500061F09F3F79F087950895121613061406EC
:10086000551FF2CF4695F1DF08C016161706180679
:10087000991FF1CF86957105610508940895E89454
:10088000BB2766277727CB0197F90895EE0FFF1F47
:100890000590F491E02D0994A29FB001B39FC0018F
:1008A000A39F700D811D1124911DB29F700D811D9C
:1008B0001124911D0895AEE0B0E0E1E6F4E00C945F
:1008C0001C070D891E8986E08C831A8309838FEFAC
:1008D0009FE79E838D83AE01475E5F4F6F89788D62
:1008E000CE0101960E947D04EF81F885E00FF11F93
:1008F00010822E96E4E00C943807ABE0B0E0E3E819
:10090000F4E00C940E076C017B018A01FC01178254
:100910001682838181FFCCC1CE0101963C01F60194
:100920009381F70193FD859193FF81917F01882346
:1009300009F4BAC1853239F493FD859193FF819111
:100940007F01853229F4B60190E00E947406E7CF5A
:10095000912C212C312CFFE1F315D8F08B3279F05A
:1009600038F4803279F08332A1F4232D20611DC048
:100970008D3261F0803369F4232D216016C0832D00
:100980008260382EE32DE4603E2E2AC0F32DF860FD
:100990001DC037FC2DC020ED280F2A3040F08E32CC
:1009A000B9F436FC81C1232D2064322E19C036FEE5
:1009B00006C08AE0989E200D1124922E11C0EAE014
:1009C0002E9E200D1124222EF32DF0623F2E08C002
:1009D0008C3621F4832D8068382E02C0883641F48D
:1009E000F70193FD859193FF81917F018111B3CF31
:1009F000982F9F7D9554933028F40C5F1F4F9FE3F1
:100A000099830DC0833631F0833771F0833509F057
:100A100059C021C0F801808189830E5F1F4F88244F
:100A20008394912C530113C02801F2E04F0E511C06
:100A3000F801A080B18036FE03C0692D70E002C0CD
:100A40006FEF7FEFC5010E9469064C018201F32D13
:100A5000FF773F2E16C0280122E0420E511CF801FC
:100A6000A080B18036FE03C0692D70E002C06FEF38
:100A70007FEFC5010E945E064C01F32DF0683F2E0A
:100A8000820133FC1BC0822D90E088169906B0F4D9
:100A9000B60180E290E00E9474062A94F4CFF5013A
:100AA00037FC859137FE81915F01B60190E00E948D
:100AB000740621102A9421E0821A9108811491046D
:100AC00071F7E8C0843611F0893641F5F80137FE38
:100AD00007C060817181828193810C5F1F4F08C0C4
:100AE00060817181072E000C880B990B0E5F1F4FE0
:100AF000F32DFF763F2E97FF09C090958095709556
:100B000061957F4F8F4F9F4FF0683F2E2AE030E076
:100B1000A3010E94B006882E861845C0853731F49F
:100B2000232D2F7EB22E2AE030E025C0932D997F11
:100B3000B92E8F36C1F018F4883579F0B5C08037FA
:100B400019F0883721F0B0C0E92FE061BE2EB4FE65
:100B50000DC0FB2DF460BF2E09C034FE0AC0292F42
:100B60002660B22E06C028E030E005C020E130E06B
:100B700002C020E132E0F801B7FE07C06081718158
:100B8000828193810C5F1F4F06C06081718180E07C
:100B900090E00E5F1F4FA3010E94B006882E8618BA
:100BA000FB2DFF773F2E36FE0DC0232D2E7FA22E6C
:100BB000891458F434FE0BC032FC09C0832D8E7E9C
:100BC000A82E05C0B82CA32C03C0B82C01C0B92C8A
:100BD000A4FE0FC0FE01E80DF11D8081803321F4D9
:100BE0009A2D997EA92E09C0A2FE06C0B394B39493
:100BF00004C08A2D867809F0B394A3FC11C0A0FE2E
:100C000006C0B21488F4280C922C9B180EC0B214A3
:100C100060F4B60180E290E00E947406B394F7CFCE
:100C2000B21418F42B1802C0982C212CA4FE10C06A
:100C3000B60180E390E00E947406A2FE17C0A1FCFA
:100C400003C088E790E002C088E590E0B6010CC0E0
:100C50008A2D867859F0A1FE02C08BE201C080E2A5
:100C6000A7FC8DE2B60190E00E947406891438F466
:100C7000B60180E390E00E9474069A94F7CF8A94BC
:100C8000F301E80DF11D8081B60190E00E94740629
:100C90008110F5CF222009F442CEB60180E290E027
:100CA0000E9474062A94F6CFF6018681978102C0CD
:100CB0008FEF9FEF2B96E2E10C942A07FC01059041
:100CC000615070400110D8F7809590958E0F9F1F4E
:100CD0000895FC016150704001900110D8F7809593
:100CE00090958E0F9F1F08950F931F93CF93DF93BF
:100CF000FB01238121FD03C08FEF9FEF2CC022FF5A
:100D000016C046815781248135814217530744F428
:100D1000A081B1819D012F5F3F4F318320838C9350
:100D2000268137812F5F3F4F3783268314C08B0185
:100D3000EC01FB010084F185E02D0995892BE1F69A
:100D4000D80116968D919C911797019617969C93B2
:100D50008E931697CE01DF91CF911F910F91089539
:100D6000FA01AA27283051F1203181F1E8946F93DC
:100D70006E7F6E5F7F4F8F4F9F4FAF4FB1E03ED082
:100D8000B4E03CD0670F781F891F9A1FA11D680F20
:100D9000791F8A1F911DA11D6A0F711D811D911D53
:100DA000A11D20D009F468943F912AE0269F1124C8
:100DB0003019305D3193DEF6CF010895462F47702C
:100DC000405D4193B3E00FD0C9F7F6CF462F4F7087
:100DD000405D4A3318F0495D31FD4052419302D0E5
:100DE000A9F7EACFB4E0A69597958795779567958B
:100DF000BA95C9F700976105710508959B01AC018B
:100E00000A2E06945795479537952795BA95C9F7B1
:100E1000620F731F841F951FA01D08952F923F928C
:100E20004F925F926F927F928F929F92AF92BF92FA
:100E3000CF92DF92EF92FF920F931F93CF93DF93A6
:100E4000CDB7DEB7CA1BDB0B0FB6F894DEBF0FBE03
:100E5000CDBF09942A88398848885F846E847D8450
:100E60008C849B84AA84B984C884DF80EE80FD8052
:100E70000C811B81AA81B981CE0FD11D0FB6F894C8
:0E0E8000DEBF0FBECDBFED010895F894FFCF89
:100E8E004C4452203D204461726B004C4452203D34
:100E9E0020427269676874004D75737420736574AF
:100EAE002041444320746F2072656164206F757415
:100EBE00707574206F66204C44522066697273748C
:100ECE0020627920747970696E6720274E27206F13
:100EDE007220276E27004D75737420736574204140
:100EEE00444320746F2072656164206F7574707551
:100EFE0074206F662074656D7065726174757265AD
:100F0E0020666972737420627920747970696E67D5
:100F1E0020274D27206F7220276D27004144432044
:100F2E0073657420746F2072656164206F757470C0
:100F3E007574206F6620706F74656E74696F6D6561
:100F4E00746572004144432073657420746F20727F
:100F5E00656164206F7574707574206F66204C44E3
:100F6E0052004144432073657420746F2072656192
:100F7E0064206F7574707574206F662074656D7063
:100F8E00657261747572652073656E736F7200554C
:100F9E006E7265636F676E697A656420636F6D6DDF
:100FAE00616E64004C4D33352054656D7065726111
:100FBE0074757265203D20256620646567204300A8
:100FCE004144432076616C7565203D2025640041C7
:100FDE0044432076616C7565203D202564206D5656
:0C0FEE00004F43523241203D2025660098
:00000001FF
