:100000000C946A000C9487000C9487000C94870071
:100010000C9487000C9487000C9487000C94870044
:100020000C9487000C9487000C9487000C94870034
:100030000C9487000C9487000C9487000C94870024
:100040000C9487000C9487000C9487000C94870014
:100050000C9476010C9496010C9487000C94870004
:100060000C9487000C9487004D0166015C016601C9
:100070006101660166016601660166016601330180
:1000800015011C0166012301660166016A012A014E
:1000900066016A0166016601660166016601660124
:1000A00066016601660166014D0166015C0166013B
:1000B0006101660166016601660166016601330140
:1000C00015011C0166012301660166016A012A010E
:1000D00066016A0111241FBECFEFD8E0DEBFCDBF9D
:1000E00012E0A0E0B1E0E0E6F9E002C005900D9278
:1000F000A832B107D9F722E0A8E2B2E001C01D9210
:10010000A936B207E1F70E94E3000C94AE040C9408
:10011000000082E480937C008FEE80937A0084E07C
:1001200080937B00089588E084B915B8089580EC29
:100130008093C00088E58093C10087E690E09093AB
:10014000C5008093C40086E08093C200089514BC6B
:1001500010926E0085E085BD86E086BD0895109200
:10016000800082E08093810081E280936F00089597
:1001700081E884BD86E085BD1092B300089521E03A
:1001800020932A02ECE2F2E02DE0208322E020938B
:100190002B022AE02183FC012081222379F0DC015B
:1001A000E0912B0281E08E0F80932B028D91F0E085
:1001B000E45DFD4F80838C918111F2CF80912C0200
:1001C0008093C60008950E9493000E9497000E94A9
:1001D00089000E94A7000E94AF000E94B800789496
:1001E000C0ECD0E006EC10E00F2EF8E1EF2EF2E0CC
:1001F000FF2EF02DCC24C394D12CAA24A394689470
:10020000BB24B1F8888188230CF064C0D801EC913C
:100210008E2F90E0FC01E154F109E633F10508F07E
:1002200055C0EC5CFF4F0C94CA01B0925E0286EDA3
:1002300091E00E94BF004EC0A0925E0288EB91E068
:100240000E94BF0047C010925E0280E991E00E94C8
:10025000BF0040C080915E028230E1F18AE491E00B
:100260000E94BF0037C080915E02813089F4809186
:100270005F02909160028130924028F085E091E029
:100280000E94BF0027C080E091E00E94BF0022C012
:100290008CE091E00E94BF001DC0809160028F93AE
:1002A00080915F028F93FF92EF920E94D0010F9096
:1002B0000F900F900F900EC0D0922902C09228028A
:1002C00009C0109229021092280204C083E092E033
:1002D0000E94BF008091610290916202019709F033
:1002E00091CF10926202109261028CCF1F920F92F6
:1002F0000FB60F9211248F93EF93FF93E0912A0290
:1003000080912B028E1751F081E08E0F80932A028C
:10031000F0E0E45DFD4F80818093C600FF91EF9196
:100320008F910F900FBE0F901F9018951F920F92F4
:100330000FB60F9211248F939F9380917800909124
:1003400079009093600280935F0281E090E0909347
:1003500062028093610280915E02813041F018F068
:10036000823049F00CC080E880937C000BC081E8AB
:1003700080937C0007C082E880937C0003C082E801
:1003800080937C00A8989F918F910F900FBE0F9043
:100390001F901895EE0FFF1F0590F491E02D099422
:1003A000A0E0B0E0E6EDF1E00C948704AE014B5F15
:1003B0005F4FFA0161917191AF0180916502909157
:1003C00066020E94E601E2E00C94A304ABE0B0E018
:1003D000ECEEF1E00C9477046C017B018A01FC01E6
:1003E00017821682838181FFCCC1CE0101963C0128
:1003F000F6019381F70193FD859193FF81917F0130
:10040000882309F4BAC1853239F493FD859193FFAD
:1004100081917F01853229F4B60190E00E94DD03CD
:10042000E7CF912C212C312CFFE1F315D8F08B3242
:1004300079F038F4803279F08332A1F4232D2061F1
:100440001DC08D3261F0803369F4232D216016C008
:10045000832D8260382EE32DE4603E2E2AC0F32DDA
:10046000F8601DC037FC2DC020ED280F2A3040F069
:100470008E32B9F436FC81C1232D2064322E19C08E
:1004800036FE06C08AE0989E200D1124922E11C0DF
:10049000EAE02E9E200D1124222EF32DF0623F2E35
:1004A00008C08C3621F4832D8068382E02C088362F
:1004B00041F4F70193FD859193FF81917F018111B3
:1004C000B3CF982F9F7D9554933028F40C5F1F4F26
:1004D0009FE399830DC0833631F0833771F0833504
:1004E00009F059C021C0F801808189830E5F1F4F38
:1004F00088248394912C530113C02801F2E04F0EFD
:10050000511CF801A080B18036FE03C0692D70E057
:1005100002C06FEF7FEFC5010E94D2034C01820140
:10052000F32DFF773F2E16C0280122E0420E511C0A
:10053000F801A080B18036FE03C0692D70E002C0D2
:100540006FEF7FEFC5010E94C7034C01F32DF068E8
:100550003F2E820133FC1BC0822D90E08816990645
:10056000B0F4B60180E290E00E94DD032A94F4CF5B
:10057000F50137FC859137FE81915F01B60190E06E
:100580000E94DD0321102A9421E0821A910881142F
:10059000910471F7E8C0843611F0893641F5F8010D
:1005A00037FE07C060817181828193810C5F1F4F8C
:1005B00008C060817181072E000C880B990B0E5FBB
:1005C0001F4FF32DFF763F2E97FF09C09095809522
:1005D000709561957F4F8F4F9F4FF0683F2E2AE0B7
:1005E00030E0A3010E941904882E861845C0853783
:1005F00031F4232D2F7EB22E2AE030E025C0932D3A
:10060000997FB92E8F36C1F018F4883579F0B5C0CE
:10061000803719F0883721F0B0C0E92FE061BE2E95
:10062000B4FE0DC0FB2DF460BF2E09C034FE0AC01D
:10063000292F2660B22E06C028E030E005C020E158
:1006400030E002C020E132E0F801B7FE07C060816F
:100650007181828193810C5F1F4F06C0608171811F
:1006600080E090E00E5F1F4FA3010E941904882EC6
:100670008618FB2DFF773F2E36FE0DC0232D2E7FD3
:10068000A22E891458F434FE0BC032FC09C0832D0D
:100690008E7EA82E05C0B82CA32C03C0B82C01C098
:1006A000B92CA4FE0FC0FE01E80DF11D808180333E
:1006B00021F49A2D997EA92E09C0A2FE06C0B394FA
:1006C000B39404C08A2D867809F0B394A3FC11C0BA
:1006D000A0FE06C0B21488F4280C922C9B180EC001
:1006E000B21460F4B60180E290E00E94DD03B3949E
:1006F000F7CFB21418F42B1802C0982C212CA4FEAA
:1007000010C0B60180E390E00E94DD03A2FE17C096
:10071000A1FC03C088E790E002C088E590E0B60144
:100720000CC08A2D867859F0A1FE02C08BE201C070
:1007300080E2A7FC8DE2B60190E00E94DD038914FF
:1007400038F4B60180E390E00E94DD039A94F7CF7D
:100750008A94F301E80DF11D8081B60190E00E94BA
:10076000DD038110F5CF222009F442CEB60180E2EC
:1007700090E00E94DD032A94F6CFF60186819781EE
:1007800002C08FEF9FEF2B96E2E10C949304FC01E3
:100790000590615070400110D8F7809590958E0FAC
:1007A0009F1F0895FC016150704001900110D8F71F
:1007B000809590958E0F9F1F08950F931F93CF9351
:1007C000DF93FB01238121FD03C08FEF9FEF2CC03E
:1007D00022FF16C046815781248135814217530775
:1007E00044F4A081B1819D012F5F3F4F318320836D
:1007F0008C93268137812F5F3F4F3783268314C028
:100800008B01EC01FB010084F185E02D0995892B1A
:10081000E1F6D80116968D919C911797019617963F
:100820009C938E931697CE01DF91CF911F910F91DC
:100830000895FA01AA27283051F1203181F1E89476
:100840006F936E7F6E5F7F4F8F4F9F4FAF4FB1E0C3
:100850003ED0B4E03CD0670F781F891F9A1FA11DBE
:10086000680F791F8A1F911DA11D6A0F711D811DBF
:10087000911DA11D20D009F468943F912AE0269F84
:1008800011243019305D3193DEF6CF010895462FE3
:100890004770405D4193B3E00FD0C9F7F6CF462FC4
:1008A0004F70405D4A3318F0495D31FD405241932D
:1008B00002D0A9F7EACFB4E0A695979587957795EA
:1008C0006795BA95C9F700976105710508959B0171
:1008D000AC010A2E06945795479537952795BA95FA
:1008E000C9F7620F731F841F951FA01D08952F92D3
:1008F0003F924F925F926F927F928F929F92AF92B0
:10090000BF92CF92DF92EF92FF920F931F93CF93FC
:10091000DF93CDB7DEB7CA1BDB0B0FB6F894DEBF93
:100920000FBECDBF09942A88398848885F846E84B9
:100930007D848C849B84AA84B984C884DF80EE8003
:10094000FD800C811B81AA81B981CE0FD11D0FB60C
:10095000F894DEBF0FBECDBFED010895F894FFCF30
:100960004461726B00427269676874004D757374FC
:10097000207365742041444320746F207265616464
:10098000206F7574707574206F66204C4452206619
:100990006972737420627920747970696E67202798
:1009A0004E27206F7220276E27004D7573742073B9
:1009B00065742041444320746F2072656164206F28
:1009C0007574707574206F662074656D70657261E2
:1009D0007475726520666972737420627920747907
:1009E00070696E6720274D27206F7220276D2700C2
:1009F0004144432073657420746F207265616420E4
:100A00006F7574707574206F6620706F74656E7486
:100A1000696F6D657465720041444320736574208D
:100A2000746F2072656164206F7574707574206FC7
:100A300066204C4452004144432073657420746F17
:100A40002072656164206F7574707574206F662004
:100A500074656D70657261747572652073656E730F
:100A60006F7200556E7265636F676E697A65642098
:100A7000636F6D6D616E64004144432076616C75F7
:080A8000652069732025640064
:00000001FF
