:100000000C946A000C9487000C9487000C94870071
:100010000C9487000C9487000C9487000C94870044
:100020000C9487000C9487000C9487000C94870034
:100030000C9487000C9487000C9487000C94870024
:100040000C9487000C9487000C9487000C94870014
:100050000C94C9010C94E9010C9487000C9487005E
:100060000C9487000C9487006A01B901AF01B901B3
:10007000B401B901B901B901B901B901B90150011E
:100080002F013701B9013F01B901B901BD01460195
:10009000B9018101B901B901B901B901B901B901C8
:1000A000B901B901B901B9016A01B901AF01B901D9
:1000B000B401B901B901B901B901B901B9015001DE
:1000C0002F013701B9013F01B901B901BD01460155
:1000D000B901810111241FBECFEFD8E0DEBFCDBF33
:1000E00012E0A0E0B1E0ECE3FAE002C005900D926E
:1000F000AC33B107D9F722E0ACE3B2E001C01D9206
:10010000A737B207E1F70E94E3000C941C050C949A
:10011000000082E480937C008FEE80937A0084E07C
:1001200080937B00089588E084B915B8089580EC29
:100130008093C00088E58093C10087E690E09093AB
:10014000C5008093C40086E08093C200089514BC6B
:1001500010926E0085E085BD86E086BD0895109200
:10016000800082E08093810081E280936F00089597
:1001700081E884BD86E085BD1092B300089521E03A
:1001800020933E02E0E4F2E02DE0208322E0209381
:100190003F022AE02183FC012081222379F0DC0147
:1001A000E0913F0281E08E0F80933F028D91F0E05D
:1001B000E05CFD4F80838C918111F2CF80914002F1
:1001C0008093C6000895CF93DF93CDB7DEB7E29753
:1001D0000FB6F894DEBF0FBECDBF0E9493000E9401
:1001E00097000E9489000E94A7000E94AF000E9411
:1001F000B800789400EC10E00F2EF6ECEF2EF12C06
:10020000F02D0F2EF8E88F2EF3E19F2EF02D0F2EFC
:10021000F8E2AF2EF2E0BF2EF02DCE0101966C0178
:100220000F2EF8E16F2EF2E07F2EF02D4424439440
:10023000512C282E3D2CD8018C9188230CF09DC088
:10024000D701EC918E2F90E0FC01E154F109E633E7
:10025000F10508F08EC0EC5CFF4F0C941D02B2E07B
:10026000B093720286ED91E00E94BF0086C0E1E08B
:10027000E093720288EB91E00E94BF007EC0109272
:10028000720280E991E00E94BF0077C08091720203
:10029000823009F472C08AE491E00E94BF006DC010
:1002A00080917202813089F480917302909174027E
:1002B0008130924028F085E091E00E94BF005DC04F
:1002C00080E091E00E94BF0058C08CE091E00E9465
:1002D000BF0053C0809174028F93809173028F93FB
:1002E0007F926F92DF92CF920E943202822D932DE5
:1002F0000E94BF000F900F900F900F900F900F90E3
:100300003CC0209173023091740236952795369542
:10031000279536952795A5ECB0E20E942302929589
:1003200082958F7089279F708927889D9001899D6C
:10033000300D989D300D11243F932F93BF92AF92B3
:10034000DF92CF920E943202822D932D0E94BF0035
:100350000F900F900F900F900F900F900EC0509233
:100360003D0240923C0209C010923D0210923C02B4
:1003700004C083E092E00E94BF00809175029091DA
:100380007602892B09F457CF1092760210927502EB
:1003900052CF1F920F920FB60F9211248F93EF93AB
:1003A000FF93E0913E0280913F028E1751F081E071
:1003B0008E0F80933E02F0E0E05CFD4F80818093E1
:1003C000C600FF91EF918F910F900FBE0F901F907D
:1003D00018951F920F920FB60F9211248F939F932F
:1003E00080917800909179009093740280937302C9
:1003F00081E090E090937602809375028091720282
:10040000813041F018F0823049F00CC080E88093D0
:100410007C000BC081E880937C0007C082E8809359
:100420007C0003C082E880937C00A8989F918F9104
:100430000F900FBE0F901F901895EE0FFF1F0590A5
:10044000F491E02D0994A29FB001B39FC001A39F36
:10045000700D811D1124911DB29F700D811D1124FD
:10046000911D0895AEE0B0E0E8E3F2E00C94F304EF
:100470000D891E8986E08C831A8309838FEF9FE79D
:100480009E838D83AE01475E5F4F6F89788DCE016D
:1004900001960E945402EF81F885E00FF11F10824F
:1004A0002E96E4E00C940F05ABE0B0E0EAE5F2E054
:1004B0000C94E5046C017B018A01FC011782168211
:1004C000838181FFCCC1CE0101963C01F60193816D
:1004D000F70193FD859193FF81917F01882309F4B2
:1004E000BAC1853239F493FD859193FF81917F01E3
:1004F000853229F4B60190E00E944B04E7CF912C9D
:10050000212C312CFFE1F315D8F08B3279F038F43F
:10051000803279F08332A1F4232D20611DC08D3209
:1005200061F0803369F4232D216016C0832D826031
:10053000382EE32DE4603E2E2AC0F32DF8601DC056
:1005400037FC2DC020ED280F2A3040F08E32B9F450
:1005500036FC81C1232D2064322E19C036FE06C020
:100560008AE0989E200D1124922E11C0EAE02E9E62
:10057000200D1124222EF32DF0623F2E08C08C3660
:1005800021F4832D8068382E02C0883641F4F701AB
:1005900093FD859193FF81917F018111B3CF982FB6
:1005A0009F7D9554933028F40C5F1F4F9FE39983F0
:1005B0000DC0833631F0833771F0833509F059C0AF
:1005C00021C0F801808189830E5F1F4F88248394A6
:1005D000912C530113C02801F2E04F0E511CF80179
:1005E000A080B18036FE03C0692D70E002C06FEFBD
:1005F0007FEFC5010E9440044C018201F32DFF777B
:100600003F2E16C0280122E0420E511CF801A080A6
:10061000B18036FE03C0692D70E002C06FEF7FEF3E
:10062000C5010E9435044C01F32DF0683F2E820174
:1006300033FC1BC0822D90E088169906B0F4B601F9
:1006400080E290E00E944B042A94F4CFF50137FC3D
:10065000859137FE81915F01B60190E00E944B04C5
:1006600021102A9421E0821A91088114910471F7D3
:10067000E8C0843611F0893641F5F80137FE07C02D
:1006800060817181828193810C5F1F4F08C06081FE
:100690007181072E000C880B990B0E5F1F4FF32DF5
:1006A000FF763F2E97FF09C09095809570956195D4
:1006B0007F4F8F4F9F4FF0683F2E2AE030E0A3011D
:1006C0000E948704882E861845C0853731F4232D73
:1006D0002F7EB22E2AE030E025C0932D997FB92ECF
:1006E0008F36C1F018F4883579F0B5C0803719F02D
:1006F000883721F0B0C0E92FE061BE2EB4FE0DC0F6
:10070000FB2DF460BF2E09C034FE0AC0292F2660DD
:10071000B22E06C028E030E005C020E130E002C083
:1007200020E132E0F801B7FE07C06081718182816B
:1007300093810C5F1F4F06C06081718180E090E063
:100740000E5F1F4FA3010E948704882E8618FB2D81
:10075000FF773F2E36FE0DC0232D2E7FA22E89144B
:1007600058F434FE0BC032FC09C0832D8E7EA82EB7
:1007700005C0B82CA32C03C0B82C01C0B92CA4FE12
:100780000FC0FE01E80DF11D8081803321F49A2D08
:10079000997EA92E09C0A2FE06C0B394B39404C0EA
:1007A0008A2D867809F0B394A3FC11C0A0FE06C080
:1007B000B21488F4280C922C9B180EC0B21460F46A
:1007C000B60180E290E00E944B04B394F7CFB214DC
:1007D00018F42B1802C0982C212CA4FE10C0B601CE
:1007E00080E390E00E944B04A2FE17C0A1FC03C06E
:1007F00088E790E002C088E590E0B6010CC08A2D41
:10080000867859F0A1FE02C08BE201C080E2A7FC0D
:100810008DE2B60190E00E944B04891438F4B601D1
:1008200080E390E00E944B049A94F7CF8A94F301FE
:10083000E80DF11D8081B60190E00E944B0481100B
:10084000F5CF222009F442CEB60180E290E00E946A
:100850004B042A94F6CFF6018681978102C08FEF70
:100860009FEF2B96E2E10C940105FC01059061508D
:1008700070400110D8F7809590958E0F9F1F0895B6
:10088000FC016150704001900110D8F7809590955F
:100890008E0F9F1F08950F931F93CF93DF93FB013C
:1008A000238121FD03C08FEF9FEF2CC022FF16C0D4
:1008B00046815781248135814217530744F4A08132
:1008C000B1819D012F5F3F4F318320838C9326811F
:1008D00037812F5F3F4F3783268314C08B01EC0194
:1008E000FB010084F185E02D0995892BE1F6D80103
:1008F00016968D919C911797019617969C938E93BF
:100900001697CE01DF91CF911F910F910895FA01B3
:10091000AA27283051F1203181F1E8946F936E7F3E
:100920006E5F7F4F8F4F9F4FAF4FB1E03ED0B4E02F
:100930003CD0670F781F891F9A1FA11D680F791F70
:100940008A1F911DA11D6A0F711D811D911DA11D81
:1009500020D009F468943F912AE0269F1124301991
:10096000305D3193DEF6CF010895462F4770405D2C
:100970004193B3E00FD0C9F7F6CF462F4F70405DDB
:100980004A3318F0495D31FD4052419302D0A9F736
:10099000EACFB4E0A6959795879577956795BA9530
:1009A000C9F700976105710508959B01AC010A2EF6
:1009B00006945795479537952795BA95C9F7620FCD
:1009C000731F841F951FA01D08952F923F924F9271
:1009D0005F926F927F928F929F92AF92BF92CF92CF
:1009E000DF92EF92FF920F931F93CF93DF93CDB7D8
:1009F000DEB7CA1BDB0B0FB6F894DEBF0FBECDBF50
:100A000009942A88398848885F846E847D848C8420
:100A10009B84AA84B984C884DF80EE80FD800C8129
:100A20001B81AA81B981CE0FD11D0FB6F894DEBF0C
:0C0A30000FBECDBFED010895F894FFCF7C
:100A3C004461726B00427269676874004D7573741F
:100A4C00207365742041444320746F207265616487
:100A5C00206F7574707574206F66204C445220663C
:100A6C006972737420627920747970696E672027BB
:100A7C004E27206F7220276E27004D7573742073DC
:100A8C0065742041444320746F2072656164206F4B
:100A9C007574707574206F662074656D7065726105
:100AAC00747572652066697273742062792074792A
:100ABC0070696E6720274D27206F7220276D2700E5
:100ACC004144432073657420746F20726561642007
:100ADC006F7574707574206F6620706F74656E74AA
:100AEC00696F6D65746572004144432073657420B1
:100AFC00746F2072656164206F7574707574206FEB
:100B0C0066204C4452004144432073657420746F3A
:100B1C002072656164206F7574707574206F662027
:100B2C0074656D70657261747572652073656E7332
:100B3C006F7200556E7265636F676E697A656420BB
:100B4C00636F6D6D616E64004144432076616C751A
:100B5C0065206973202564004144432076616C75DF
:0C0B6C0065206973202564206D56000090
:00000001FF
