:100000000C946A000C9487000C9487000C94870071
:100010000C9487000C9487000C9487000C94870044
:100020000C9487000C9487000C9487000C94870034
:100030000C9487000C9487000C9487000C94870024
:100040000C9487000C9487000C9487000C94870014
:100050000C9455010C9475010C9487000C94870046
:100060000C9487000C948700FC005001460150015D
:100070004B015001500150015001500150012C0121
:100080000E01150150011C0150015001FC0023011B
:100090005001FC005001500150015001500150012D
:1000A0005001500150015001FC0050014601500127
:1000B0004B015001500150015001500150012C01E1
:1000C0000E01150150011C0150015001FC002301DB
:1000D0005001FC0011241FBECFEFD8E0DEBFCDBF22
:1000E00012E0A0E0B1E0E2E9F3E002C005900D9279
:1000F000A432B107D9F722E0A4E2B2E001C01D9218
:10010000A036B207E1F70E94E3000C94C7010C94FB
:10011000000082E480937C008FEE80937A0084E07C
:1001200080937B00089588E084B915B8089580EC29
:100130008093C00088E58093C10087E690E09093AB
:10014000C5008093C40086E08093C200089514BC6B
:1001500010926E0085E085BD86E086BD0895109200
:10016000800082E08093810081E280936F00089597
:1001700081E884BD86E085BD1092B300089521E03A
:1001800020932602E8E2F2E02DE0208322E0209393
:1001900027022AE02183FC012081222379F0DC015F
:1001A000E091270281E08E0F809327028D91F0E08D
:1001B000E85DFD4F80838C918111F2CF8091280200
:1001C0008093C60008950E9493000E9497000E94A9
:1001D00089000E94A7000E94AF000E94B800789496
:1001E000C0ECD0E006EC10E0EE24E394F12CCC243B
:1001F000C3946894DD24D1F888818823ECF7D80172
:10020000EC918E2F90E0FC01E154F109E633F10509
:1002100008F046C0EC5CFF4F0C94C101D0925B0229
:1002200082EE91E00E94BF00E7CFC0925B0284ECB7
:1002300091E00E94BF00E0CF10925B028CE991E058
:100240000E94BF00D9CF80915B028230A9F286E57F
:1002500091E00E94BF00D0CF80915B02813089F491
:1002600080915C0290915D028130924028F08BE099
:1002700091E00E94BF00C0CF80E091E00E94BF00EB
:10028000BBCF88E191E00E94BF00B6CFF09225027B
:10029000E0922402B1CF1092250210922402ACCF3A
:1002A0008FE092E00E94BF00A7CF1F920F920FB67F
:1002B0000F9211248F93EF93FF93E0912602809188
:1002C00027028E1751F081E08E0F80932602F0E016
:1002D000E85DFD4F80818093C600FF91EF918F9183
:1002E0000F900FBE0F901F9018951F920F920FB690
:1002F0000F9211248F939F9381E090E090935F027F
:1003000080935E0280915B02813081F018F0823030
:10031000C9F024C080E880937C008091780090919F
:10032000790090935D0280935C0223C081E8809302
:100330007C00809178009091790090935D02809389
:100340005C0217C082E880937C00809178009091D5
:10035000790090935D0280935C020BC082E88093E9
:100360007C00809178009091790090935D02809359
:100370005C02A8989F918F910F900FBE0F901F90D5
:100380001895EE0FFF1F0590F491E02D0994F89455
:02039000FFCF9D
:100392004C4452203D204461726B004C4452203D3B
:1003A20020427269676874004D75737420736574B6
:1003B2002041444320746F2072656164206F75741C
:1003C200707574206F66204C445220666972737493
:1003D20020627920747970696E6720274E27206F1A
:1003E2007220276E27004D75737420736574204147
:1003F200444320746F2072656164206F7574707558
:1004020074206F662074656D7065726174757265B3
:1004120020666972737420627920747970696E67DC
:1004220020274D27206F7220276D2700414443204B
:1004320073657420746F2072656164206F757470C7
:100442007574206F6620706F74656E74696F6D6568
:10045200746572004144432073657420746F207286
:10046200656164206F7574707574206F66204C44EA
:1004720052004144432073657420746F2072656199
:1004820064206F7574707574206F662074656D706A
:10049200657261747572652073656E736F72005553
:1004A2006E7265636F676E697A656420636F6D6DE6
:0404B200616E640013
:00000001FF
