:100000000C9434000C9451000C9451000C94510049
:100010000C9451000C9451000C9451000C9451001C
:100020000C9451000C9451000C9451000C9451000C
:100030000C9451000C9451000C9451000C945100FC
:100040000C9451000C9451000C9451000C945100EC
:100050000C94D8000C94F8000C9451000C945100AE
:100060000C9451000C94510011241FBECFEFD8E026
:10007000DEBFCDBF11E0A0E0B1E0E2E5F2E002C0FA
:1000800005900D92AA34B107D9F721E0AAE4B1E0B6
:1000900001C01D92A338B207E1F70E94AD000C9495
:1000A00027010C94000082E480937C008FEE809303
:1000B0007A0084E080937B00089588E084B915B8C5
:1000C000089580EC8093C00088E58093C10087E6A6
:1000D00090E09093C5008093C40086E08093C200B6
:1000E000089514BC10926E0085E085BD86E086BD43
:1000F00008951092800082E08093810081E28093D5
:100100006F00089581E884BD86E085BD1092B3003C
:10011000089521E020934A01ECE4F1E02DE02083F2
:1001200022E020934B012AE02183FC01208122233D
:1001300079F0DC01E0914B0181E08E0F80934B015F
:100140008D91F0E0E45BFE4F80838C918111F2CFC2
:1001500080914C018093C60008950E945D000E942A
:1001600061000E9453000E9471000E9479000E9469
:1001700082007894C0ECD0E006EC10E088818823FF
:10018000ECF7F8018081813621F0823639F0813434
:1001900051F482E391E00E948900F0CF8AE191E07E
:1001A0000E948900EBCF80E091E00E948900E6CFB9
:1001B0001F920F920FB60F9211248F93EF93FF931C
:1001C000E0914A0180914B018E1751F081E08E0F32
:1001D00080934A01F0E0E45BFE4F80818093C6008B
:1001E000FF91EF918F910F900FBE0F901F90189578
:1001F0001F920F920FB60F9211248F939F938091AD
:100200007800909179009093800180937F0181E044
:1002100090E0909382018093810180917E018130F2
:1002200041F018F0823049F00BC080E480937C00EC
:1002300007C081E480937C0003C082E480937C004B
:100240009F918F910F900FBE0F901F901895F8946B
:02025000FFCFDE
:100252005468617420776173206E65697468657291
:100262002062206E6F7220612E00546861742077C4
:100272006173206120622C206E6F7420616E206198
:100282002E00546861742077617320616E206120B2
:0A0292006F7220616E20412E000003
:00000001FF
