:100000000C94F8000C9415010C9415010C94150136
:100010000C9415010C9415010C9415010C94150108
:100020000C9415010C9415010C9415010C941501F8
:100030000C9415010C9415010C9415010C941501E8
:100040000C9415010C9415010C9415010C941501D8
:100050000C94C4020C94E4020C9415010C94150148
:100060000C9415010C9415019902990299029902B8
:10007000990299029902990299029902BF02BF025C
:10008000BF02BF02BF02BF02BF021E02BF02650263
:10009000BF026C02BF02BF02BF02BF02BF02BF02AB
:1000A0000402AF01B901BF02C301BF02BF02710266
:1000B000CC01BF023602BF02BF02BF02BF02BF02B5
:1000C000BF02BF02BF02BF02BF021E02BF02650223
:1000D000BF026C02BF02BF02BF02BF02BF02BF026B
:1000E0000402AF01B901BF02C301BF02BF02710226
:1000F000CC01BF02360200407A10F35A00A0724EC3
:1001000018090010A5D4E80000E87648170000E4BC
:100110000B54020000CA9A3B000000E1F505000004
:1001200080969800000040420F000000A086010069
:100130000000102700000000E80300000000640039
:10014000000000000A0000000000010000000000A4
:100150002C76D888DC674F0823DFC1DFAE59E1B1C8
:10016000B796E5E3E453C63AE651997696E8E6C2D7
:100170008426EB898C9B62ED407C6FFCEFBC9C9FDE
:1001800040F2BAA56FA5F490055A2AF75C936B6C00
:10019000F9676DC11BFCE0E40D47FEF520E6B500F4
:1001A000D0ED902E0300943577050080841E080062
:1001B00000204E0A000000C80C333333330F986E12
:1001C00012831141EF8D2114893BE65516CFFEE6CF
:1001D000DB18D1844B381BF77C1D901DA4BBE42495
:1001E000203284725E228100C9F124ECA1E53D2712
:1001F00011241FBECFEFD8E0DEBFCDBF12E0A0E0DC
:10020000B1E0EEE0F3E102C005900D92AA31B10732
:10021000D9F722E0AAE1B2E001C01D92A439B207E9
:10022000E1F70E9464010C9485090C94000082E4BB
:1002300080937C008FEE80937A0084E080937B0033
:10024000089588E084B915B8089588E58093C100C1
:1002500087E690E09093C5008093C400089514BC95
:1002600010926E0085E085BD86E086BD089581E828
:100270008093B00086E08093B1001092B30008959F
:1002800021E020931C02E2E2F2E02DE0208322E054
:1002900020931D022AE02183FC012081222379F092
:1002A000DC01E0911D0281E08E0F80931D028D9193
:1002B000F0E0EE5DFD4F80838C918111F2CF809153
:1002C00022028093C6000895CF93DF93CDB7DEB7A7
:1002D000E2970FB6F894DEBF0FBECDBF0E9421019A
:1002E0000E9425010E9417010E942F010E943701E0
:1002F00078940F2EF0ECEF2EF12CF02D0F2EF6EC63
:10030000CF2ED12CF02D0F2EF3EB4F2E512CF02DA4
:100310000F2EFAEF2F2EF1E03F2EF02DCE01019699
:100320005C013E0195E2690E711C4E01EBE28E0EFE
:10033000911CCE014F969AAB89ABF701808188233F
:10034000E4F7F6010081802F90E0FC01F097E7349C
:10035000F10508F014C1EC5CFF4F0C94430482E0FB
:1003600080938702809386028EE991E00E9440018B
:10037000E4CF81E080938702809386028EE891E04B
:100380000E944001DACF109287021092860284E721
:1003900091E00E944001D1CF80918702823079F5AF
:1003A00060918802709189027695679580E090E06F
:1003B0000E94480360938A0270938B0280938C02A0
:1003C00090938D028E01015E1F4F22E044E00E9457
:1003D0004904FAA9FF9329A92F9382ED91E09F93F5
:1003E0008F93BF92AF920E946904C5010E944001A1
:1003F0000F900F900F900F900F900F909ECF82E470
:1004000091E00E94400199CF80918702813089F468
:1004100080918802909189028130924028F08BE08F
:1004200091E00E94400189CF80E091E00E9440016C
:1004300084CF88E191E00E9440017FCF80918902C2
:100440008F93809188028F938EEE91E09F938F938C
:10045000BF92AF920E946904C5010E9440010F90B3
:100460000F900F900F900F900F9067CF60918802C0
:100470007091890280E090E00E94480326EF38E204
:100480004CE950E40E94AE0360931E0270931F0279
:100490008093200290932102840122E046E00E9492
:1004A00049049F928F928DEF91E09F938F93BF921B
:1004B000AF920E946904C5010E9440010F900F9005
:1004C0000F900F900F900F9038CF81E090E09093B5
:1004D0001B0280931A0231CF10921B0210921A0253
:1004E0002CCFF201608170E080E090E00E94480330
:1004F00060938E0270938F0280939002909391028A
:10050000830122E044E00E9449047F926F928FE0D1
:1005100092E09F938F93BF92AF920E946904C501AE
:100520000E9440010F900F900F900F900F900F902E
:1005300004CF10E000531109B801012E000C880B04
:10054000990B0E944A0320E030E04CEC51E40E94F9
:10055000AE030E941903F20160831F930F933F9231
:100560002F92BF92AF920E946904C5010E94400180
:100570000F900F900F900F900F900F90DECE8DEB9D
:1005800091E00E944001D9CE1F920F920FB60F92B8
:1005900011248F93EF93FF93E0911C0280911D0231
:1005A0008E1751F081E08E0F80931C02F0E0EE5D1B
:1005B000FD4F80818093C600FF91EF918F910F9046
:1005C0000FBE0F901F9018951F920F920FB60F92AB
:1005D00011248F939F9381E090E0909393028093F6
:1005E0009202809178009091790090938902809393
:1005F000880280918702813041F018F0823049F002
:100600000CC080E480937C000BC081E480937C006C
:1006100007C082E480937C0003C082E480937C0066
:1006200081E085BB9F918F910F900FBE0F901F901F
:1006300018950E948D0388F09F5798F0B92F99273D
:10064000B751B0F0E1F0660F771F881F991F1AF0BD
:10065000BA95C9F714C0B13091F00E94A703B1E078
:1006600008950C94A703672F782F8827B85F39F077
:10067000B93FCCF3869577956795B395D9F73EF456
:1006800090958095709561957F4F8F4F9F4F0895FE
:10069000E89409C097FB3EF490958095709561951C
:1006A0007F4F8F4F9F4F9923A9F0F92F96E9BB27D2
:1006B0009395F695879577956795B795F111F8CF4E
:1006C000FAF4BB0F11F460FF1BC06F5F7F4F8F4FB9
:1006D0009F4F16C0882311F096E911C0772321F0AF
:1006E0009EE8872F762F05C0662371F096E8862F47
:1006F00070E060E02AF09A95660F771F881FDAF79E
:10070000880F9695879597F9089557FD9058440F4F
:10071000551F59F05F3F71F04795880F97FB991F60
:1007200061F09F3F79F0879508951216130614061D
:10073000551FF2CF4695F1DF08C0161617061806AA
:10074000991FF1CF86957105610508940895E89485
:10075000BB2766277727CB0197F908950E94C1032D
:100760000C9432040E94240438F00E942B0420F0E0
:10077000952311F00C941B040C94210411240C9467
:10078000A8030E94850370F3959FC1F3950F50E075
:10079000551F629FF001729FBB27F00DB11D639F33
:1007A000AA27F00DB11DAA1F649F6627B00DA11DD9
:1007B000661F829F2227B00DA11D621F739FB00D7F
:1007C000A11D621F839FA00D611D221F749F3327EF
:1007D000A00D611D231F849F600D211D822F762F88
:1007E0006A2F11249F5750409AF0F1F088234AF065
:1007F000EE0FFF1FBB1F661F771F881F91505040D1
:10080000A9F79E3F510580F00C941B040C94A8039B
:100810005F3FE4F3983ED4F3869577956795B79557
:10082000F795E7959F5FC1F7FE2B880F911D969571
:10083000879597F9089597F99F6780E870E060E0E1
:1008400008959FEF80EC089500240A941616170669
:1008500018060906089500240A94121613061406B1
:1008600005060895092E0394000C11F4882352F014
:10087000BB0F40F4BF2B11F460FF04C06F5F7F4FCC
:100880008F4F9F4F0895EE0FFF1F0590F491E02DBD
:100890000994EF920F931F93CF93DF93E80147FDE5
:1008A00002C034E001C034E1042E000C550B57FFA8
:1008B00003C0519541955109E32E022F242FAE011B
:1008C0000E946C06CE01DF91CF911F910F91EF90A6
:1008D0000895AEE0B0E0EFE6F4E00C945C090D8919
:1008E0001E8986E08C831A8309838FEF9FE79E839E
:1008F0008D83AE01475E5F4F6F89788DCE01019683
:100900000E948B04EF81F885E00FF11F10822E9674
:10091000E4E00C947809ABE0B0E0E1E9F4E00C9499
:100920004E096C017B018A01FC01178216828381CA
:1009300081FFCCC1CE0101963C01F6019381F70104
:1009400093FD859193FF81917F01882309F4BAC1BA
:10095000853239F493FD859193FF81917F01853232
:1009600029F4B60190E00E94B408E7CF912C212C25
:10097000312CFFE1F315D8F08B3279F038F4803266
:1009800079F08332A1F4232D20611DC08D3261F0F6
:10099000803369F4232D216016C0832D8260382EA8
:1009A000E32DE4603E2E2AC0F32DF8601DC037FC15
:1009B0002DC020ED280F2A3040F08E32B9F436FCDD
:1009C00081C1232D2064322E19C036FE06C08AE074
:1009D000989E200D1124922E11C0EAE02E9E200D2B
:1009E0001124222EF32DF0623F2E08C08C3621F404
:1009F000832D8068382E02C0883641F4F70193FDBC
:100A0000859193FF81917F018111B3CF982F9F7DB5
:100A10009554933028F40C5F1F4F9FE399830DC0CA
:100A2000833631F0833771F0833509F059C021C026
:100A3000F801808189830E5F1F4F88248394912C55
:100A4000530113C02801F2E04F0E511CF801A080A1
:100A5000B18036FE03C0692D70E002C06FEF7FEFFA
:100A6000C5010E94A9084C018201F32DFF773F2E9A
:100A700016C0280122E0420E511CF801A080B1806E
:100A800036FE03C0692D70E002C06FEF7FEFC50135
:100A90000E949E084C01F32DF0683F2E820133FC2A
:100AA0001BC0822D90E088169906B0F4B60180E252
:100AB00090E00E94B4082A94F4CFF50137FC8591A8
:100AC00037FE81915F01B60190E00E94B4082110C9
:100AD0002A9421E0821A91088114910471F7E8C0E8
:100AE000843611F0893641F5F80137FE07C0608180
:100AF0007181828193810C5F1F4F08C06081718179
:100B0000072E000C880B990B0E5F1F4FF32DFF76FD
:100B10003F2E97FF09C090958095709561957F4F06
:100B20008F4F9F4FF0683F2E2AE030E0A3010E94D4
:100B3000F008882E861845C0853731F4232D2F7E86
:100B4000B22E2AE030E025C0932D997FB92E8F3642
:100B5000C1F018F4883579F0B5C0803719F08837BE
:100B600021F0B0C0E92FE061BE2EB4FE0DC0FB2D18
:100B7000F460BF2E09C034FE0AC0292F2660B22EB1
:100B800006C028E030E005C020E130E002C020E1EE
:100B900032E0F801B7FE07C06081718182819381E4
:100BA0000C5F1F4F06C06081718180E090E00E5F96
:100BB0001F4FA3010E94F008882E8618FB2DFF7797
:100BC0003F2E36FE0DC0232D2E7FA22E891458F401
:100BD00034FE0BC032FC09C0832D8E7EA82E05C0CA
:100BE000B82CA32C03C0B82C01C0B92CA4FE0FC094
:100BF000FE01E80DF11D8081803321F49A2D997E4C
:100C0000A92E09C0A2FE06C0B394B39404C08A2DD5
:100C1000867809F0B394A3FC11C0A0FE06C0B214FC
:100C200088F4280C922C9B180EC0B21460F4B60104
:100C300080E290E00E94B408B394F7CFB21418F4A5
:100C40002B1802C0982C212CA4FE10C0B60180E302
:100C500090E00E94B408A2FE17C0A1FC03C088E780
:100C600090E002C088E590E0B6010CC08A2D86783D
:100C700059F0A1FE02C08BE201C080E2A7FC8DE228
:100C8000B60190E00E94B408891438F4B60180E3FC
:100C900090E00E94B4089A94F7CF8A94F301E80D8B
:100CA000F11D8081B60190E00E94B4088110F5CF5B
:100CB000222009F442CEB60180E290E00E94B408FE
:100CC0002A94F6CFF6018681978102C08FEF9FEFBD
:100CD0002B96E2E10C946A09A9E0B0E0E2E7F6E0C5
:100CE0000C9454096A01122FB02E2BE3201720F028
:100CF000FF24F394F00E02C02CE3F22E0F2D27E018
:100D0000AE014F5F5F4F0E94C607BC014981842F2F
:100D10008970813031F0E1FC06C0E0FE06C090E24F
:100D200005C09DE203C09BE201C090E05E2D5071C2
:100D300043FF3CC0911102C083E001C084E08117F1
:100D400018F4212F281B01C020E051110BC0F6011F
:100D5000822F30E2882319F031938150FBCFC20EED
:100D6000D11C20E0992329F0D6019C93F6013196FD
:100D70006F01C6010396E2FE0AC03EE4D6013C9331
:100D800041E411964C93119712963C9306C03EE6AF
:100D9000F601308341E641833283FC01322F40E289
:100DA000332309F442C041933150FACF42FF44C08B
:100DB000911102C083E001C084E0811718F4212F53
:100DC000281B01C020E051110BC0F601822F30E238
:100DD000882319F031938150FBCFC20ED11C20E043
:100DE000992329F0D6019C93F60131966F01C60133
:100DF0000396E2FE0BC039E4D6013C933EE4119623
:100E00003C93119736E412963C9307C039E6F601FD
:100E100030833EE6318336E63283FC01322F40E2F6
:100E2000332319F041933150FBCFFC01E20FF11D48
:100E300010828EEF9FEFA6C021E030E0911102C03A
:100E400020E030E0161617061CF4FB01319602C0B4
:100E5000E1E0F0E02E0F3F1FBB2021F0EB2DF0E092
:100E6000319602C0E0E0F0E02E0F3F1FE12FF0E0EE
:100E70002E173F071CF4121B212F01C020E08E2DDE
:100E8000887159F4F601822F30E2882319F03193EA
:100E90008150FBCFC20ED11C20E0992329F0D6014E
:100EA0009C93F60131966F0151110BC0F601822F10
:100EB00090E3882319F091938150FBCFC20ED11C8F
:100EC00020E00F2D060F9A81342F307144FF03C0AC
:100ED000913309F40150101624F4093018F008E099
:100EE00001C001E0AB0177FF02C040E050E0FB0130
:100EF000E41BF50BA1E0B0E0AC0FBD1FEA0FFB1F38
:100F00008EE2A82E4B01801A91080B2D10E011954E
:100F1000019511094F3FBFEF5B0721F4D601AC9259
:100F200011966D01641775072CF08416950614F45C
:100F3000818101C080E3415051093196D60111965B
:100F40007D014017510724F0D6018C936701E2CF51
:100F50006417750739F4963320F4953319F4311179
:100F600001C081E3F6018083F701822F90E288239C
:100F700019F091938150FBCFF701E20FF11D108220
:100F800080E090E02996ECE00C947009283008F09D
:100F900027E03327DA01990F311D87FD9160009614
:100FA0006105710539F432602E5F3D9330E32A9577
:100FB000E1F708959F3F30F080387105610509F031
:100FC0003C5F3C5F3D93913008F08068911DDF935A
:100FD000CF931F930F93FF92EF92192F987F9695BF
:100FE000E92F96959695E90FFF27E05BFE4F99272D
:100FF0003327EE24FF24A701E70105900894079406
:1010000028F4360FE71EF81E491F511D660F771F83
:10101000881F991F0694A1F70590079428F4E70EFE
:10102000F81E491F561FC11D770F881F991F661F85
:101030000694A1F70590079428F4F80E491F561F4F
:10104000C71FD11D880F991F661F771F0694A1F730
:101050000590079420F4490F561FC71FD81F990FFA
:10106000661F771F881F0694A9F784911095177043
:1010700041F0D695C79557954795F794E7941A95FB
:10108000C1F7E6EFF0E06894159015913591659100
:10109000959105907FE27395E118F10A430B560B89
:1010A000C90BD009C0F7E10CF11E431F561FC91F21
:1010B000D01D7EF4703311F48A95E6CFE894015088
:1010C00030F0080F0AF40027021708F4202F2395A8
:1010D000022F7A3328F079E37D932A95E9F710C03F
:1010E0007D932A9589F60694979567953795179578
:1010F0001794E118F10A430B560BC90BD00998F06D
:1011000023957E9173957A3308F070E37C932013D6
:10111000B8F77E9170617D9330F0839571E37D9394
:1011200070E32A95E1F71124EF90FF900F911F9142
:10113000CF91DF91992787FD90950895FC01059047
:10114000615070400110D8F7809590958E0F9F1FC9
:101150000895FC016150704001900110D8F780950E
:1011600090958E0F9F1F08950F931F93CF93DF933A
:10117000FB01238121FD03C08FEF9FEF2CC022FFD5
:1011800016C046815781248135814217530744F4A4
:10119000A081B1819D012F5F3F4F318320838C93CC
:1011A000268137812F5F3F4F3783268314C08B0101
:1011B000EC01FB010084F185E02D0995892BE1F616
:1011C000D80116968D919C911797019617969C932E
:1011D0008E931697CE01DF91CF911F910F910895B5
:1011E000FA01AA27283051F1203181F1E8946F9358
:1011F0006E7F6E5F7F4F8F4F9F4FAF4FB1E03ED0FE
:10120000B4E03CD0670F781F891F9A1FA11D680F9B
:10121000791F8A1F911DA11D6A0F711D811D911DCE
:10122000A11D20D009F468943F912AE0269F112443
:101230003019305D3193DEF6CF010895462F4770A7
:10124000405D4193B3E00FD0C9F7F6CF462F4F7002
:10125000405D4A3318F0495D31FD4052419302D060
:10126000A9F7EACFB4E0A695979587957795679506
:10127000BA95C9F700976105710508959B01AC0106
:101280000A2E06945795479537952795BA95C9F72D
:10129000620F731F841F951FA01D08952F923F9208
:1012A0004F925F926F927F928F929F92AF92BF9276
:1012B000CF92DF92EF92FF920F931F93CF93DF9322
:1012C000CDB7DEB7CA1BDB0B0FB6F894DEBF0FBE7F
:1012D000CDBF09942A88398848885F846E847D84CC
:1012E0008C849B84AA84B984C884DF80EE80FD80CE
:1012F0000C811B81AA81B981CE0FD11D0FB6F89444
:0E130000DEBF0FBECDBFED010895F894FFCF04
:10130E004C4452203D204461726B004C4452203DAF
:10131E0020427269676874004D757374207365742A
:10132E002041444320666F72204C44522062792043
:10133E00747970696E6720274E27206F7220276E92
:10134E0027004D75737420736574204144432066E5
:10135E006F722074656D706572617475726520624E
:10136E007920747970696E6720274D27206F72205F
:10137E00276D27004144432073657420666F7220E9
:10138E00706F74656E74696F6D657465720041443B
:10139E00432073657420666F72204C4452004144A2
:1013AE00432073657420666F722074656D7065726C
:1013BE0061747572652073656E736F7200556E720F
:1013CE0065636F676E697A656420636F6D6D616EBC
:1013DE0064004C4D33352054656D706572617475C3
:1013EE007265203D202573206465672043004144CB
:1013FE00432076616C7565203D2025640041444391
:10140E002076616C7565203D202573206D56004F4A
:0A141E0043523241203D20257300A7
:00000001FF
