:100000000C946A000C9487000C9487000C94870071
:100010000C9487000C9487000C9487000C94870044
:100020000C9487000C9487000C9487000C94870034
:100030000C9487000C9487000C9487000C94870024
:100040000C9487000C9487000C9487000C94870014
:100050000C942F010C944F010C9487000C94870092
:100060000C9487000C9487002401200116012001C4
:100070001B01200120012001200120012001240179
:100080000D01100120011301200120012401240190
:100090002001240120012001200120012001200154
:1000A000200120012001200124012001160120014E
:1000B0001B01200120012001200120012001240139
:1000C0000D01100120011301200120012401240150
:1000D0002001240111241FBECFEFD8E0DEBFCDBF29
:1000E00011E0A0E0B1E0E0E2F3E002C005900D9283
:1000F000A631B107D9F721E0A6E1B1E001C01D9218
:10010000A135B207E1F70E94E3000C948E010C9434
:10011000000082E480937C008FEE80937A0084E07C
:1001200080937B00089588E084B915B8089580EC29
:100130008093C00088E58093C10087E690E09093AB
:10014000C5008093C40086E08093C200089514BC6B
:1001500010926E0085E085BD86E086BD0895109200
:10016000800082E08093810081E280936F00089597
:1001700081E884BD86E085BD1092B300089521E03A
:1001800020931801EAE1F1E02DE0208322E02093A2
:1001900019012AE02183FC012081222379F0DC016E
:1001A000E091190181E08E0F809319018D91F0E0AB
:1001B000E65EFE4F80838C918111F2CF80911A010F
:1001C0008093C60008950E9493000E9497000E94A9
:1001D00089000E94A7000E94AF000E94B800789496
:1001E000C0ECD0E006EC10E0EE24E394F12CCC243B
:1001F000C3946894DD24D1F8888188232CF5D80134
:10020000EC918E2F90E0FC01E154F109E633F10509
:10021000B8F4EC5CFF4F0C948801D0924C0114C0F0
:10022000C0924C0111C010924C010EC0F092170107
:10023000E092160109C0109217011092160104C035
:1002400080E091E00E94BF0080914F0190915001A9
:10025000019791F61092500110924F01CDCF1F924D
:100260000F920FB60F9211248F93EF93FF93E091AB
:100270001801809119018E1751F081E08E0F809343
:100280001801F0E0E65EFE4F80818093C600FF918A
:10029000EF918F910F900FBE0F901F9018951F92A6
:1002A0000F920FB60F9211248F939F938091780035
:1002B0009091790090934E0180934D0181E090E000
:1002C0009093500180934F0180914C01813051F007
:1002D00018F0823069F012C080E480937C0081E0E5
:1002E00085BB0FC081E480937C0081E085BB09C0A1
:1002F00082E480937C0081E085BB03C082E480932C
:100300007C009F918F910F900FBE0F901F901895BA
:10031000EE0FFF1F0590F491E02D0994F894FFCFA4
:10032000556E7265636F676E697A656420636F6D81
:060330006D616E64000027
:00000001FF
