:100000000C946A000C9487000C9487000C94870071
:100010000C9487000C9487000C9487000C94870044
:100020000C9487000C9487000C9487000C94870034
:100030000C9487000C9487000C9487000C94870024
:100040000C9487000C9487000C9487000C94870014
:100050000C94FC010C941C020C9487000C948700F7
:100060000C9487000C9487008F01F701D201F701EF
:10007000D701F701F701F701F701F701F701750162
:1000800032013A01F7014201F701F701DC014901B0
:10009000F701A501F701F701F701F701F701F701F2
:1000A000F701F701F701F7018F01F701D201F7011D
:1000B000D701F701F701F701F701F701F701750122
:1000C00032013A01F7014201F701F701DC01490170
:1000D000F701A50111241FBECFEFD8E0DEBFCDBFD1
:1000E00012E0A0E0B1E0ECECFCE002C005900D9263
:1000F000AA31B107D9F722E0AAE1B2E001C01D920E
:10010000A635B207E1F70E94E3000C9464060C9454
:10011000000082E480937C008FEE80937A0084E07C
:1001200080937B00089588E084B915B8089580EC29
:100130008093C00088E58093C10087E690E09093AB
:10014000C5008093C40086E08093C200089514BC6B
:1001500010926E0085E085BD86E086BD0895109200
:10016000800082E08093810081E280936F00089597
:1001700081E884BD86E085BD1092B300089521E03A
:1001800020931C02EEE1F2E02DE0208322E0209398
:100190001D022AE02183FC012081222379F0DC0169
:1001A000E0911D0281E08E0F80931D028D91F0E0A1
:1001B000E25EFD4F80838C918111F2CF80911E020F
:1001C0008093C6000895CF93DF93CDB7DEB7E29753
:1001D0000FB6F894DEBF0FBECDBF0E9493000E9401
:1001E00097000E9489000E94A7000E94AF000E9411
:1001F000B800789400EC10E00F2EF6ECEF2EF12C06
:10020000F02D0F2EFFE0AF2EF2E0BF2EF02DCE012D
:1002100001966C0188248394912C0F2EF8E86F2EA0
:10022000F3E17F2EF02D0F2EFDEF4F2EF1E05F2E2C
:10023000F02D0F2EFEEE2F2EF1E03F2EF02DD801E7
:100240008C918823E4F7D701EC918E2F90E0FC018C
:10025000E154F109E633F10508F0C9C0EC5CFF4F49
:100260000C946503B2E0B09351028EE991E00E94D4
:10027000BF00E5CFE1E0E09351028EE891E00E94FB
:10028000BF00DDCF1092510284E791E00E94BF00D1
:10029000D6CF80915102823019F56091520270914F
:1002A000530280E090E00E946A0220E030E040E0EB
:1002B0005FE30E94A7029F938F937F936F9382EDDA
:1002C00091E09F938F93DF92CF920E947A03C601B1
:1002D0000E94BF000FB6F894DEBF0FBECDBFAFCFF8
:1002E00082E491E00E94BF00AACF80915102813048
:1002F00089F480915202909153028130924028F00B
:100300008BE091E00E94BF009ACF80E091E00E94D4
:10031000BF0095CF88E191E00E94BF0090CF80910F
:1003200053028F93809152028F933F922F92DF92CC
:10033000CF920E947A03C6010E94BF000F900F90D7
:100340000F900F900F900F907ACF20915202309122
:100350005302369527953695279536952795A5EC22
:10036000B0E20E946B03929582958F7089279F70EF
:100370008927869D9001879D300D969D300D112413
:100380003F932F935F924F92DF92CF920E947A0316
:10039000C6010E94BF000F900F900F900F900F901A
:1003A0000F904DCF90921B0280921A0248CF10926C
:1003B0001B0210921A0243CFA3EBB0E06C9170E0E5
:1003C00080E090E00E946A029F938F937F936F93E7
:1003D000BF92AF92DF92CF920E947A03C6010E9431
:1003E000BF000FB6F894DEBF0FBECDBF28CF8DEB98
:1003F00091E00E94BF0023CF1F920F920FB60F9281
:1004000011248F93EF93FF93E0911C0280911D02C2
:100410008E1751F081E08E0F80931C02F0E0E25EB7
:10042000FD4F80818093C600FF91EF918F910F90D7
:100430000FBE0F901F9018951F920F920FB60F923C
:1004400011248F939F9381E090E0909355028093C5
:10045000540280915102813081F018F08230C9F04D
:1004600024C080E880937C0080917800909179008E
:10047000909353028093520223C081E880937C00C2
:10048000809178009091790090935302809352026A
:1004900017C082E880937C00809178009091790069
:1004A00090935302809352020BC082E880937C00A9
:1004B000809178009091790090935302809352023A
:1004C00085B3817085BB9F918F910F900FBE0F9068
:1004D0001F901895E89409C097FB3EF4909580957D
:1004E000709561957F4F8F4F9F4F9923A9F0F92FFA
:1004F00096E9BB279395F695879577956795B79578
:10050000F111F8CFFAF4BB0F11F460FF1BC06F5F5D
:100510007F4F8F4F9F4F16C0882311F096E911C06F
:10052000772321F09EE8872F762F05C0662371F090
:1005300096E8862F70E060E02AF09A95660F771FA4
:10054000881FDAF7880F9695879597F908950E9486
:10055000BA020C942B030E941D0338F00E9424035E
:1005600020F0952311F00C9414030C941A03112419
:100570000C945F030E943C0370F3959FC1F3950FA9
:1005800050E0551F629FF001729FBB27F00DB11D17
:10059000639FAA27F00DB11DAA1F649F6627B00DA7
:1005A000A11D661F829F2227B00DA11D621F739F90
:1005B000B00DA11D621F839FA00D611D221F749F9E
:1005C0003327A00D611D231F849F600D211D822FE5
:1005D000762F6A2F11249F5750409AF0F1F088230C
:1005E0004AF0EE0FFF1FBB1F661F771F881F915039
:1005F0005040A9F79E3F510580F00C9414030C94D1
:100600005F035F3FE4F3983ED4F386957795679553
:10061000B795F795E7959F5FC1F7FE2B880F911D62
:100620009695879597F9089597F99F6780E870E008
:1006300060E008959FEF80EC089500240A94161658
:10064000170618060906089500240A9412161306C0
:10065000140605060895092E0394000C11F488234E
:1006600052F0BB0F40F4BF2B11F460FF04C06F5F6A
:100670007F4F8F4F9F4F089557FD9058440F551F40
:1006800059F05F3F71F04795880F97FB991F61F014
:100690009F3F79F087950895121613061406551F8B
:1006A000F2CF4695F1DF08C0161617061806991FF7
:1006B000F1CF86957105610508940895E894BB27EC
:1006C00066277727CB0197F90895EE0FFF1F059056
:1006D000F491E02D0994A29FB001B39FC001A39FA4
:1006E000700D811D1124911DB29F700D811D11246B
:1006F000911D0895AEE0B0E0E0E8F3E00C943B0615
:100700000D891E8986E08C831A8309838FEF9FE70A
:100710009E838D83AE01475E5F4F6F89788DCE01DA
:1007200001960E949C03EF81F885E00FF11F108273
:100730002E96E4E00C945706ABE0B0E0E2EAF3E07A
:100740000C942D066C017B018A01FC011782168234
:10075000838181FFCCC1CE0101963C01F6019381DA
:10076000F70193FD859193FF81917F01882309F41F
:10077000BAC1853239F493FD859193FF81917F0150
:10078000853229F4B60190E00E949305E7CF912CC1
:10079000212C312CFFE1F315D8F08B3279F038F4AD
:1007A000803279F08332A1F4232D20611DC08D3277
:1007B00061F0803369F4232D216016C0832D82609F
:1007C000382EE32DE4603E2E2AC0F32DF8601DC0C4
:1007D00037FC2DC020ED280F2A3040F08E32B9F4BE
:1007E00036FC81C1232D2064322E19C036FE06C08E
:1007F0008AE0989E200D1124922E11C0EAE02E9ED0
:10080000200D1124222EF32DF0623F2E08C08C36CD
:1008100021F4832D8068382E02C0883641F4F70118
:1008200093FD859193FF81917F018111B3CF982F23
:100830009F7D9554933028F40C5F1F4F9FE399835D
:100840000DC0833631F0833771F0833509F059C01C
:1008500021C0F801808189830E5F1F4F8824839413
:10086000912C530113C02801F2E04F0E511CF801E6
:10087000A080B18036FE03C0692D70E002C06FEF2A
:100880007FEFC5010E9488054C018201F32DFF779F
:100890003F2E16C0280122E0420E511CF801A08014
:1008A000B18036FE03C0692D70E002C06FEF7FEFAC
:1008B000C5010E947D054C01F32DF0683F2E820199
:1008C00033FC1BC0822D90E088169906B0F4B60167
:1008D00080E290E00E9493052A94F4CFF50137FC62
:1008E000859137FE81915F01B60190E00E949305EA
:1008F00021102A9421E0821A91088114910471F741
:10090000E8C0843611F0893641F5F80137FE07C09A
:1009100060817181828193810C5F1F4F08C060816B
:100920007181072E000C880B990B0E5F1F4FF32D62
:10093000FF763F2E97FF09C0909580957095619541
:100940007F4F8F4F9F4FF0683F2E2AE030E0A3018A
:100950000E94CF05882E861845C0853731F4232D97
:100960002F7EB22E2AE030E025C0932D997FB92E3C
:100970008F36C1F018F4883579F0B5C0803719F09A
:10098000883721F0B0C0E92FE061BE2EB4FE0DC063
:10099000FB2DF460BF2E09C034FE0AC0292F26604B
:1009A000B22E06C028E030E005C020E130E002C0F1
:1009B00020E132E0F801B7FE07C0608171818281D9
:1009C00093810C5F1F4F06C06081718180E090E0D1
:1009D0000E5F1F4FA3010E94CF05882E8618FB2DA6
:1009E000FF773F2E36FE0DC0232D2E7FA22E8914B9
:1009F00058F434FE0BC032FC09C0832D8E7EA82E25
:100A000005C0B82CA32C03C0B82C01C0B92CA4FE7F
:100A10000FC0FE01E80DF11D8081803321F49A2D75
:100A2000997EA92E09C0A2FE06C0B394B39404C057
:100A30008A2D867809F0B394A3FC11C0A0FE06C0ED
:100A4000B21488F4280C922C9B180EC0B21460F4D7
:100A5000B60180E290E00E949305B394F7CFB21400
:100A600018F42B1802C0982C212CA4FE10C0B6013B
:100A700080E390E00E949305A2FE17C0A1FC03C092
:100A800088E790E002C088E590E0B6010CC08A2DAE
:100A9000867859F0A1FE02C08BE201C080E2A7FC7B
:100AA0008DE2B60190E00E949305891438F4B601F6
:100AB00080E390E00E9493059A94F7CF8A94F30123
:100AC000E80DF11D8081B60190E00E949305811030
:100AD000F5CF222009F442CEB60180E290E00E94D8
:100AE00093052A94F6CFF6018681978102C08FEF95
:100AF0009FEF2B96E2E10C944906FC0105906150B2
:100B000070400110D8F7809590958E0F9F1F089523
:100B1000FC016150704001900110D8F780959095CC
:100B20008E0F9F1F08950F931F93CF93DF93FB01A9
:100B3000238121FD03C08FEF9FEF2CC022FF16C041
:100B400046815781248135814217530744F4A0819F
:100B5000B1819D012F5F3F4F318320838C9326818C
:100B600037812F5F3F4F3783268314C08B01EC0101
:100B7000FB010084F185E02D0995892BE1F6D80170
:100B800016968D919C911797019617969C938E932C
:100B90001697CE01DF91CF911F910F910895FA0121
:100BA000AA27283051F1203181F1E8946F936E7FAC
:100BB0006E5F7F4F8F4F9F4FAF4FB1E03ED0B4E09D
:100BC0003CD0670F781F891F9A1FA11D680F791FDE
:100BD0008A1F911DA11D6A0F711D811D911DA11DEF
:100BE00020D009F468943F912AE0269F11243019FF
:100BF000305D3193DEF6CF010895462F4770405D9A
:100C00004193B3E00FD0C9F7F6CF462F4F70405D48
:100C10004A3318F0495D31FD4052419302D0A9F7A3
:100C2000EACFB4E0A6959795879577956795BA959D
:100C3000C9F700976105710508959B01AC010A2E63
:100C400006945795479537952795BA95C9F7620F3A
:100C5000731F841F951FA01D08952F923F924F92DE
:100C60005F926F927F928F929F92AF92BF92CF923C
:100C7000DF92EF92FF920F931F93CF93DF93CDB745
:100C8000DEB7CA1BDB0B0FB6F894DEBF0FBECDBFBD
:100C900009942A88398848885F846E847D848C848E
:100CA0009B84AA84B984C884DF80EE80FD800C8197
:100CB0001B81AA81B981CE0FD11D0FB6F894DEBF7A
:0C0CC0000FBECDBFED010895F894FFCFEA
:100CCC004C4452203D204461726B004C4452203DF8
:100CDC0020427269676874004D7573742073657473
:100CEC002041444320666F72204C4452206279208C
:100CFC00747970696E6720274E27206F7220276EDB
:100D0C0027004D757374207365742041444320662D
:100D1C006F722074656D7065726174757265206296
:100D2C007920747970696E6720274D27206F7220A7
:100D3C00276D27004144432073657420666F722031
:100D4C00706F74656E74696F6D6574657200414483
:100D5C00432073657420666F72204C4452004144EA
:100D6C00432073657420666F722074656D706572B4
:100D7C0061747572652073656E736F7200556E7257
:100D8C0065636F676E697A656420636F6D6D616E04
:100D9C0064004C4D33352054656D7065726174750B
:100DAC007265203D20256620646567204300414420
:100DBC00432076616C7565203D20256400414443D9
:100DCC002076616C7565203D202564206D56004FA2
:0A0DDC0043523241203D20256600FD
:00000001FF
