S011000050726F6A65637420322E73726563EA
S11300000C9434000C9451000C9451000C94510045
S11300100C9451000C9451000C9451000C94510018
S11300200C9451000C9451000C9451000C94510008
S11300300C9451000C9451000C9451000C945100F8
S11300400C9451000C9451000C9451000C945100E8
S11300500C94A8000C9451000C9451000C94510081
S11300600C9451000C94510011241FBECFEFD8E022
S1130070DEBFCDBF11E0A0E0B1E0E4E9F1E002C0F1
S113008005900D92AA34B107D9F721E0AAE4B1E0B2
S113009001C01D92AE37B207E1F70E9487000C94AD
S11300A0C8000C94000080EC8093C00088E5809325
S11300B0C10087E690E09093C5008093C40086E079
S11300C08093C200089521E020934A01ECE4F1E01A
S11300D02DE0208322E020934B012AE02183FC01C0
S11300E02081222379F0DC01E0914B0181E08E0F25
S11300F080934B018D91F0E0E45BFE4F80838C9103
S11301008111F2CF80914C018093C60008950E9422
S113011053007894C0ECD0E006EC10E0888188238A
S1130120ECF7F8018081813621F0823639F0813490
S113013051F482E391E00E946300F0CF8AE191E000
S11301400E946300EBCF80E091E00E946300E6CF61
S11301501F920F920FB60F9211248F93EF93FF9378
S1130160E0914A0180914B018E1751F081E08E0F8E
S113017080934A01F0E0E45BFE4F80818093C600E7
S1130180FF91EF918F910F900FBE0F901F901895D4
S1070190F894FFCF0D
S11301945468617420776173206E6569746865724C
S11301A42062206E6F7220612E005468617420777F
S11301B46173206120622C206E6F7420616E206153
S11301C42E00546861742077617320616E2061206D
S10D01D46F7220616E20412E0000BE
S9030000FC
